:10000000E8C0000014C1000012C1000010C10000CF
:100010000EC100000CC100000AC1000008C10000B0
:1000200006C1000004C1000002C1000000C10000C0
:10003000FEC00000FCC00000FAC00000F8C00000D4
:10004000F6C00000F4C00000F2C00000F0C00000E4
:10005000EEC00000ECC00000EAC00000FFC40000D9
:10006000E6C00000C5C400009AC40000E0C0000063
:10007000DEC00000DCC00000DAC00000D8C0000014
:10008000D6C00000D4C00000D2C00000D0C0000024
:10009000CEC00000CCC00000CAC0000029C50000CE
:1000A000C6C00000C4C00000C2C00000C0C0000044
:1000B000BEC00000BCC00000BAC00000B8C0000054
:1000C000B6C00000B4C00000B2C00000B0C0000064
:1000D000AEC00000ACC00000AAC00000A8C0000074
:1000E000A6C0000000002200250028002B002E00E2
:1000F0003100340002010000050108010B01050573
:100100000505070508080808020202020A0A08088D
:1001100004040404010101010101010103030303BB
:1001200003030303040707070C0C0C0C0C0C0C0C4A
:100130000202020206060606060606060B0B0B0B5B
:100140000B0B0B0B01021020200808102040102080
:10015000408002010201080402010102040810208B
:100160004080804020100804020180040201804089
:1001700020100804020108040201010204081020F2
:100180004080010204081020408000000A0B020990
:100190000C0D0E0807030401000000000000000021
:1001A000000000000000000000000000000000004F
:1001B000000000000000121110000000000000000C
:1001C000000000000000000000000000000000002F
:1001D0009B0611241FBECFEFD1E2DEBFCDBF00E0F2
:1001E0000CBF24E0A8E4B2E001C01D92A030B20729
:1001F000E1F712E0A0E0B2E0EEEFF0E100E00BBFCB
:1002000002C007900D92A834B107D9F710E0C9EEEB
:10021000D0E000E005C021970109802FFE0165D7DD
:10022000C83ED10780E00807B1F7DFD566C7E8CE42
:10023000E5E0F3E0A089B18982E08C93A485B585DF
:100240001C92A685B7858FEC8C93108EA489B589F6
:1002500086E08C93A289B3898C9180618C93A2896A
:10026000B3898C9188608C93A289B3898C918068C2
:100270008C930288F389E02D80818F7D808308959F
:10028000CF92DF92EF92FF920F931F932FB7F894C4
:10029000C0900103D0900203E0900303F0900403A8
:1002A0002FBF6C0D7D1D8E1D9F1D4FB7F8940091C3
:1002B00001031091020320910303309104034FBF07
:1002C0000C151D052E053F0528F0601771078207E4
:1002D000930758F71F910F91FF90EF90DF90CF9009
:1002E0000895AF92BF92CF92DF92EF92FF920F9359
:1002F0001F93CF93DF936C017B018B01040F151FBC
:10030000EB015E01AE18BF08C017D10759F0699123
:10031000D601ED91FC910190F081E02DC601199577
:10032000892B79F7C501DF91CF911F910F91FF9034
:10033000EF90DF90CF90BF90AF900895089508950B
:100340000895FC01538D448D252F30E0842F90E0DB
:10035000821B930B541710F0CF96089501970895C0
:10036000FC01918D828D981761F0A28DAE0FBF2F89
:10037000B11D5D968C91928D9F5F9F73928F90E0DF
:1003800008958FEF9FEF0895FC01918D828D98174E
:1003900031F0828DE80FF11D858D90E008958FEF8B
:1003A0009FEF0895FC01918D228D892F90E0805C54
:1003B0009F4F821B91098F739927089585E093E0E1
:1003C000F1DF21E0892B09F420E0822F0895FC0160
:1003D000A48DA80FB92FB11DA35ABF4F2C91848DA6
:1003E00090E001968F739927848FA689B7892C9303
:1003F000A089B1898C91837080648C93938D848D56
:10040000981306C00288F389E02D80818F7D808358
:100410000895EF92FF920F931F93CF93DF93EC0118
:1004200081E0888F9B8D8C8D98131AC0E889F9899B
:10043000808185FF15C09FB7F894EE89FF8960839E
:10044000E889F98980818370806480839FBF81E01F
:1004500090E0DF91CF911F910F91FF90EF90089561
:10046000F62E0B8D10E00F5F1F4F0F731127E02E3C
:100470008C8D8E110BC00FB607FCFACFE889F98975
:10048000808185FFF5CFCE01A2DFF2CFEB8DEC0F9F
:10049000FD2FF11DE35AFF4FF0829FB7F8940B8FA9
:1004A000EA89FB8980818062D0CFCF93DF93EC0112
:1004B000888D8823B1F0AA89BB89E889F9898C9154
:1004C00085FD03C0808186FD0CC00FB607FCF7CF09
:1004D0008C9185FFF2CF808185FFEDCFCE0177DF54
:1004E000EACFDF91CF91089580E090E0892B21F051
:1004F00065DF81110E94000080E090E0892B49F0C7
:1005000080E090E0892B29F00E94000081110E9478
:10051000000080E090E0892B49F080E090E0892B9A
:1005200029F00E94000081110E94000080E090E00C
:10053000892B49F080E090E0892B29F00E9400008F
:1005400081110C9400000895282F30E0F901E6573E
:10055000FE4F9491F901EC5BFE4F449122503F4FC6
:10056000F9012491222309F434C0992309F191500F
:100570009231F0F4E92FF0E08827EF53FD4F8F4FD1
:10058000B4C5F202F602D302EA02EE02D802F90280
:10059000FF02030309030D03110317031B03D80212
:1005A0001F0325032903809180008F7780938000AB
:1005B000E22FF0E0EE0FFF1FEC51FF4FA591B49139
:1005C0008FB7F894EC91611148C040954E234C933D
:1005D0008FBF0895809180008F7DE8CF809180004B
:1005E000877FE4CF84B58F7784BDE2CF84B58F7DDC
:1005F000FBCF8091B0008F778093B000D9CF8091EE
:10060000B0008F7DF9CF809190008F77809390001C
:10061000CFCF809190008F7DF9CF80919000877F20
:10062000F5CF8091A0008F778093A000C1CF8091FB
:10063000A0008F7DF9CF8091A000877FF5CF8091BA
:1006400020018F7780932001B3CF809120018F7D8F
:10065000F9CF80912001877FF5CF4E2BB8CF3FB7E0
:10066000F8948091F2029091F302A091F402B0917B
:10067000F50226B5A89B05C02F3F19F00196A11DD4
:10068000B11D3FBFBA2FA92F982F8827BC01CD01DC
:10069000620F711D811D911D42E0660F771F881F3B
:1006A000991F4A95D1F708958F929F92AF92BF926A
:1006B000CF92DF92EF92FF924B015C01D0DF6B0192
:1006C0007C01CDDF6C197D098E099F09683E73405E
:1006D00081059105B0F321E0821A9108A108B108C3
:1006E00088EEC80E83E0D81EE11CF11C8114910431
:1006F000A104B10431F7FF90EF90DF90CF90BF904D
:10070000AF909F908F90089585ED8093BC0080916D
:10071000BC0084FDFCCF1092FC0208952091AA0237
:10072000260F3327331F21323105ECF42091FC02D0
:10073000FC0190E080E0243069F082E00895A0910F
:10074000AA022191AC0146575D4FA40FB52FB11DF0
:100750002C930196861798F38091AA02680F6093F4
:10076000AA0280E0089581E00895E091000380915D
:10077000FF02E81730F4F0E0E659FD4F808190E089
:1007800008958FEF9FEF0895909100038091FF02ED
:100790002FEF3FEF981748F4E92FF0E0E659FD4FAF
:1007A000208130E09F5F90930003C90108958091FC
:1007B000FF0290910003891B990B0895CF92DF925D
:1007C000EF92FF920F931F93CF93DF937C01CB01A6
:1007D0008A0120916902222389F0EB016B01C40E8A
:1007E000D51ECC15DD0561F06991D701ED91FC9125
:1007F0000190F081E02DC7011995F3CF642F8EDFB2
:10080000C801DF91CF911F910F91FF90EF90DF9082
:10081000CF900895CF93DF931F92CDB7DEB7698352
:10082000209169022223F9F02091FD02203258F034
:1008300021E030E0FC013383228390E080E00F90E0
:10084000DF91CF9108958091FE02E82FF0E0E75B01
:10085000FD4F998190838F5F8093FE028093FD020C
:1008600081E090E0ECCF61E0CE01019657DFF8CF58
:10087000CF93FC01C48121E020936902C093480218
:100880001092FE021092FD028385682B82EA93E0AB
:10089000C1DF9091FD02913208F03FC08091FC02CF
:1008A0008111FCCF82E08093FC0281E08093FB0207
:1008B0008FEF8093CD021092EF029093EE02A9E4A5
:1008C000B2E0EEECF2E080E098132FC01092F0025C
:1008D0008091F002CC0FC82BC093F0028091FA02F5
:1008E000813039F51092FA028091F0028093BB00BA
:1008F0008091BC0083FDF8CF85EC8093BC00809193
:10090000FC028230E1F38091CD028F3F31F0809183
:10091000CD02803211F08091CD021092FE02109231
:10092000FD0210926902CF9108952D9121938F5F5E
:10093000CBCF85EEE2CF089590E080E008950F934D
:100940001F93CF938C01C62F93DF6C2F6460C80177
:100950008FDF6C2F6B7FC8018BDF83EC90E00197FA
:10096000F1F7CF911F910F9108950F931F93CF939C
:10097000DF938C01D62FC42F607F642BE0DF80E1F2
:10098000D89FB00111246C2BC801DF91CF911F912A
:100990000F91D5CF41E0E9DF81E090E008951F920B
:1009A0000F920FB60F9211240BB60F922F933F9315
:1009B0004F935F936F937F938F939F93AF93BF9367
:1009C000EF93FF9385E093E002DDFF91EF91BF91FC
:1009D000AF919F918F917F916F915F914F913F91D7
:1009E0002F910F900BBE0F900FBE0F901F90189578
:1009F0001F920F920FB60F9211240BB60F922F93E6
:100A00008F939F93EF93FF93E0911503F09116035B
:100A10008081E0911B03F0911C0382FD1DC0908139
:100A200080911E038F5F8F7320911F03821741F007
:100A3000E0911E03F0E0EB5FFC4F958F80931E0367
:100A4000FF91EF919F918F912F910F900BBE0F907F
:100A50000FBE0F901F9018958081F2CF1F920F92BA
:100A60000FB60F9211242F933F938F939F93AF93C1
:100A7000BF938091010390910203A0910303B09171
:100A800004033091F10223E0230F2D3758F501962E
:100A9000A11DB11D2093F1028093010390930203E5
:100AA000A0930303B09304038091F2029091F302A8
:100AB000A091F402B091F5020196A11DB11D8093A1
:100AC000F2029093F302A093F402B093F502BF9167
:100AD000AF919F918F913F912F910F900FBE0F90EB
:100AE0001F90189526E8230F0296A11DB11DD2CFA5
:100AF0001F920F920FB60F9211240BB60F922F93E5
:100B00003F934F935F936F937F938F939F93AF9395
:100B1000BF93EF93FF938091B900887F803609F4EB
:100B20004CC008F03FC0883209F4A8C028F58031D5
:100B300009F49CC0C8F4882309F4FAC0883009F489
:100B400095C0FF91EF91BF91AF919F918F917F9150
:100B50006F915F914F913F912F910F900BBE0F902E
:100B60000FBE0F901F901895883109F487C080320E
:100B700041F78093CD0214C0803409F49CC040F446
:100B80008033B9F38833E9F68093CD0285ECAFC0AA
:100B9000803509F484C0883509F495C0883489F615
:100BA000B3DDCFCF883909F48CC038F5883729F008
:100BB00050F4883611F0803721F683E08093FC02F0
:100BC0001092CC0257C0883809F47BC0803919F0E4
:100BD000803809F0B6CF8091CC02803208F071C025
:100BE000E091CC0281E08E0F8093CC028091BB001B
:100BF000F0E0E455FD4F80833DC0803B39F0E0F4E8
:100C0000803A09F479C0883A09F09BCF84E0809358
:100C1000FC021092AB021092AA02E091F802F0914D
:100C2000F90219958091AA0281110FC081E0809389
:100C3000AA0210928A0209C0803C09F4A7CF883C1E
:100C400009F4A4CF883B09F07CCFE091AB0281E0AE
:100C50008E0F8093AB02F0E0E657FD4F80818093CA
:100C6000BB009091AB028091AA0229C08091F00252
:100C70008093BB0085EC8093BC0063CF9091EF0222
:100C80008091EE02981758F5E091EF0281E08E0F07
:100C90008093EF02F0E0E253FD4F8081E9CFE091D5
:100CA000EF0281E08E0F8093EF028091BB00F0E0B5
:100CB000E253FD4F80839091EF028091EE029817EE
:100CC000C8F285E8D8CFE091EF0281E08E0F8093E3
:100CD000EF028091BB00F0E0E253FD4F80838091F2
:100CE000FB0281115DCF81E08093FA0284EA809358
:100CF000BC001092FC0225CF85EC8093BC001092C2
:100D0000FC028091CC02803230F4E091CC02F0E021
:100D1000E455FD4F10826091CC0270E0E091F60244
:100D2000F091F7028CEA92E019951092CC0209CF6B
:100D30001092CD0235CFE5E0F3E01382128288EE07
:100D400093E0A0E0B0E084839583A683B78324E09A
:100D500032E03183208325EC30E03587248724EC92
:100D600030E03787268720EC30E0318B208B21EC78
:100D700030E0338B228B22EC30E0358B248B26EC59
:100D800030E0378B268B118E128E138E148EE2EA92
:100D9000F3E01382128284839583A683B78386E16E
:100DA00092E091838083EEEAF3E016821782108648
:100DB0001186128613861486158616861786108A63
:100DC000118A128A138A148A158AE4EFF3E01382D7
:100DD000128288E292E09183808387E2848380E1BB
:100DE000818782E0828713860895789484B5826033
:100DF00084BD84B5816084BD85B5826085BD85B5BF
:100E0000816085BD80916E00816080936E0010923C
:100E100081008091810082608093810080918100B7
:100E20008160809381008091800081608093800048
:100E30008091B10084608093B1008091B0008160A6
:100E40008093B000809191008260809391008091A6
:100E500091008160809391008091900081608093E7
:100E600090008091A10082608093A1008091A100F8
:100E700081608093A1008091A00081608093A00098
:100E80008091210182608093210180912101816004
:100E900080932101809120018160809320018091C5
:100EA0007A00846080937A0080917A0082608093D7
:100EB0007A0080917A00816080937A0080917A0034
:100EC000806880937A001092C1001092F003109213
:100ED000F1031092F2031092F3031092B0031092F8
:100EE000B1031092B2031092B30368EB7BE080E091
:100EF00090E0C6D968EE73E080E090E0D5DB98D949
:100F00002FB7F8948091010390910203A0910303FD
:100F1000B09104032FBF8093B0039093B103A093CB
:100F2000B203B093B30340E150E060E372E085E0C8
:100F300093E0D7D96AE070E080E090E0A1D9C1E009
:100F4000C093C4032FB7F8948091010390910203DA
:100F5000A0910303B09104032FBF8093B00390933B
:100F6000B103A093B203B093B30346E050E061E451
:100F700072E085E093E0B5D9109200031092FF0271
:100F80001092FE021092FD021092FC02C093FB022E
:100F90001092FA0261E084E1D7DA61E085E1D4DA07
:100FA0008091B9008E7F8093B9008091B9008D7FC8
:100FB0008093B90088E48093B80085E48093BC00F6
:100FC0008EE991E09093F9028093F8028FE991E025
:100FD0009093F7028093F6021092F9038091FE033A
:100FE000823018F098E09093F9038093FC0362E359
:100FF00070E080E090E058DB6091FF0384EF93E0C5
:1010000037DC68EE73E080E090E04EDB60E384EF75
:1010100093E095DCCBE4D6E4CE010197F1F760E3F1
:1010200084EF93E08CDC2197F1F760E384EF93E0A9
:1010300086DC83E592E00197F1F760E284EF93E0CC
:101040007EDC6091F903606240E084EF93E08DDC28
:1010500084E08093FA0340E06CE084EF93E085DC69
:1010600040E061E084EF93E080DCCBE3DFE1CE01A0
:101070000197F1F782E08093FB0340E066E084EFA4
:1010800093E073DC40E062E084EF93E06EDC219754
:10109000F1F788E08093FF0360E084EF93E0E8DB02
:1010A000C7D8CBE3DFE185E093E07CD9892BD9F089
:1010B00064E670E080E090E0F7DA40E061E084EF21
:1010C00093E053DCCE010197F1F785E093E06AD914
:1010D0001816190644F485E093E042D9682F84EF8E
:1010E00093E058DCF2CF00DADECFEE0FFF1F881F4F
:0E10F0008BBF0790F691E02D1994F894FFCF76
:1010FE000000000009027101A1015502D201B001E8
:10110E00C401000000000A04DE039C04A001D70302
:10111E00C403B50300000000CA0471019C049B04C3
:10112E00564D4450565F317C315F564D4450560AF1
:08113E0000564D4450525F00C1
:00000001FF
