:10000000E8C0000017C1000015C1000013C10000C6
:1000100011C100000FC100000DC100000BC10000A4
:1000200009C1000007C1000005C1000003C10000B4
:1000300001C10000FFC00000FDC00000FBC00000C7
:10004000F9C00000F7C00000F5C00000F3C00000D8
:10005000F1C00000EFC00000EDC000000C94630987
:10006000E9C000000C942D090C940409E3C00000C1
:10007000E1C00000DFC00000DDC00000DBC0000008
:100080000C94330BD7C00000D5C000000C94D00AEC
:10009000D1C00000CFC00000CDC000000C94AD095D
:1000A000C9C00000C7C00000C5C00000C3C0000038
:1000B000C1C00000BFC00000BDC00000BBC0000048
:1000C000B9C00000B7C00000B5C00000B3C0000058
:1000D000B1C00000AFC00000ADC00000ABC0000068
:1000E000A9C0000000002200250028002B002E00DF
:1000F0003100340002010000050108010B01050573
:100100000505070508080808020202020A0A08088D
:1001100004040404010101010101010103030303BB
:1001200003030303040707070C0C0C0C0C0C0C0C4A
:100130000202020206060606060606060B0B0B0B5B
:100140000B0B0B0B01021020200808102040102080
:10015000408002010201080402010102040810208B
:100160004080804020100804020180040201804089
:1001700020100804020108040201010204081020F2
:100180004080010204081020408000000A0B020990
:100190000C0D0E0807030401000000000000000021
:1001A000000000000000000000000000000000004F
:1001B000000000000000121110000000000000000C
:1001C000000000000000000000000000000000002F
:1001D000E50B11241FBECFEFD1E2DEBFCDBF00E0A3
:1001E0000CBF12E0A0E0B2E0ECECF1E200E00BBFEB
:1001F00002C007900D92AA3EB107D9F724E0AAEEFB
:10020000B2E001C01D92AE39B207E1F710E0C9EECD
:10021000D0E000E006C021970109802FFE010E9476
:10022000DC10C83ED10780E00807A9F70E945B0CEC
:100230000C94E410E5CEE1E7F0E080818B7F8083D1
:100240008081877F808380818D7F808380818E7F86
:1002500080830895AF92BF92CF92DF92EF92FF9288
:100260000F931F93CF93DF936C017B018B01040FDE
:10027000151FEB015E01AE18BF08C017D10759F07A
:100280006991D601ED91FC910190F081E02DC601BC
:100290001995892B79F7C501DF91CF911F910F91A6
:1002A000FF90EF90DF90CF90BF90AF9008950895AA
:1002B0000895FC01538D448D252F30E0842F90E06C
:1002C000821B930B541710F0CF9608950197089551
:1002D000FC01918D828D981761F0A28DAE0FBF2F1A
:1002E000B11D5D968C91928D9F5F9F73928F90E070
:1002F00008958FEF9FEF0895FC01918D828D9817DF
:1003000031F0828DE80FF11D858D90E008958FEF1B
:100310009FEF0895FC01918D228D892F90E0805CE4
:100320009F4F821B91098F739927089589EC93E061
:10033000F1DF21E0892B09F420E0822F0895FC01F0
:10034000A48DA80FB92FB11DA35ABF4F2C91848D36
:1003500090E001968F739927848FA689B7892C9393
:10036000A089B1898C91837080648C93938D848DE6
:10037000981306C00288F389E02D80818F7D8083E9
:100380000895EF92FF920F931F93CF93DF93EC01A9
:1003900081E0888F9B8D8C8D98131AC0E889F9892C
:1003A000808185FF15C09FB7F894EE89FF8960832F
:1003B000E889F98980818370806480839FBF81E0B0
:1003C00090E0DF91CF911F910F91FF90EF900895F2
:1003D000F62E0B8D10E00F5F1F4F0F731127E02ECD
:1003E0008C8D8E110BC00FB607FCFACFE889F98906
:1003F000808185FFF5CFCE01A2DFF2CFEB8DEC0F30
:10040000FD2FF11DE35AFF4FF0829FB7F8940B8F39
:10041000EA89FB8980818062D0CFCF93DF93EC01A2
:10042000888D8823B1F0AA89BB89E889F9898C91E4
:1004300085FD03C0808186FD0CC00FB607FCF7CF99
:100440008C9185FFF2CF808185FFEDCFCE0177DFE4
:10045000EACFDF91CF91089580E090E0892B21F0E1
:1004600065DF81110E94000080E090E0892B49F057
:1004700080E090E0892B29F00E94000081110E9409
:10048000000080E090E0892B49F080E090E0892B2B
:1004900029F00E94000081110E94000080E090E09D
:1004A000892B49F080E090E0892B29F00E94000020
:1004B00081110C9400000895282F30E0F901E657CF
:1004C000FE4F9491F901EC5BFE4F449122503F4F57
:1004D000F9012491222309F435C0992311F1915097
:1004E0009231F8F4E92FF0E08827E658FD4F8F4F5E
:1004F0000C94DC10AB02AF028C02A302A7029102A3
:10050000B202B802BC02C202C602CA02D002D402BF
:100510009102D802DE02E202809180008F77809300
:100520008000E22FF0E0EE0FFF1FEC51FF4FA5918E
:10053000B4918FB7F894EC91611148C040954E2367
:100540004C938FBF0895809180008F7DE8CF80917C
:100550008000877FE4CF84B58F7784BDE2CF84B5F8
:100560008F7DFBCF8091B0008F778093B000D9CF83
:100570008091B0008F7DF9CF809190008F7780932C
:100580009000CFCF809190008F7DF9CF8091900027
:10059000877FF5CF8091A0008F778093A000C1CF97
:1005A0008091A0008F7DF9CF8091A000877FF5CF4B
:1005B000809120018F7780932001B3CF809120011B
:1005C0008F7DF9CF80912001877FF5CF4E2BB8CF5B
:1005D0003FB7F8948091980390919903A0919A0362
:1005E000B0919B0326B5A89B05C02F3F19F001963B
:1005F000A11DB11D3FBFBA2FA92F982F8827BC017D
:10060000CD01620F711D811D911D42E0660F771FA4
:10061000881F991F4A95D1F708958F929F92AF92A4
:10062000BF92CF92DF92EF92FF924B015C01D0DF3D
:100630006B017C01CDDF6C197D098E099F09683E35
:10064000734081059105B0F321E0821A9108A10859
:10065000B10888EEC80E83E0D81EE11CF11C81149D
:100660009104A104B10431F7FF90EF90DF90CF9097
:10067000BF90AF909F908F90089585ED8093BC00C0
:100680008091BC0084FDFCCF1092A20308952091BC
:100690004C03260F3327331F21323105ECF4209110
:1006A000A203FC0190E080E0243069F082E008952C
:1006B000A0914C032191AC01445D5C4FA40FB52F78
:1006C000B11D2C930196861798F380914C03680F07
:1006D00060934C0380E0089581E008950895E091CF
:1006E000A6038091A503E81730F4F0E0E45FFC4F27
:1006F000808190E008958FEF9FEF08959091A60379
:100700008091A5032FEF3FEF981748F4E92FF0E011
:10071000E45FFC4F208130E09F5F9093A603C90106
:1007200008958091A5039091A603891B990B0895C4
:10073000CF92DF92EF92FF920F931F93CF93DF93AD
:100740007C01CB018A0120910B03222389F0EB016C
:100750006B01C40ED51ECC15DD0561F06991D70182
:10076000ED91FC910190F081E02DC7011995F3CF37
:10077000642F8DDFC801DF91CF911F910F91FF9002
:10078000EF90DF90CF900895CF93DF931F92CDB776
:10079000DEB7698320910B032223F9F02091A30394
:1007A000203258F021E030E0FC013383228390E0D6
:1007B00080E00F90DF91CF9108958091A403E82FFE
:1007C000F0E0E551FD4F998190838F5F8093A40302
:1007D0008093A30381E090E0ECCF61E0CE0101962D
:1007E00056DFF8CFCF93FC01C48121E020930B03A7
:1007F000C093EA021092A4031092A3038385682B8E
:1008000086E694E0C1DF9091A303913208F03FC0E7
:100810008091A2038111FCCF82E08093A20381E04A
:100820008093A1038FEF80936F03109291039093B5
:100830009003ABEEB2E0E0E7F3E080E098132FC066
:100840001092920380919203CC0FC82BC093920315
:100850008091A003813039F51092A003809192031A
:100860008093BB008091BC0083FDF8CF85EC809322
:10087000BC008091A2038230E1F380916F038F3F2F
:1008800031F080916F03803211F080916F031092EC
:10089000A4031092A30310920B03CF9108952D91FE
:1008A00021938F5FCBCF85EEE2CF089590E080E07B
:1008B0000895FC01738362836830710579F154F403
:1008C0006115710519F061307105F9F080919100A1
:1008D0008B7F35C06115F1E07F0771F1611584E010
:1008E000780799F16034710589F7809191008B7FC9
:1008F000809391008091910082608093910080911B
:1009000091008160809391000895809191008B7F88
:1009100080939100809191008D7FEFCF8091910025
:100920008B7F8093910080919100826080939100F1
:10093000809191008E7FE6CF8091910084608093BA
:100940009100809191008D7FF1CF80919100846022
:10095000DFCF0F931F93CF938C01C62F43DF6C2FF4
:100960006460C8013FDF6C2F6B7FC8013BDF83EC05
:1009700090E00197F1F7CF911F910F9108950F9398
:100980001F93CF93DF938C01D62FC42F607F642BEE
:10099000E0DF80E1D89FB00111246C2BC801DF910A
:1009A000CF911F910F91D5CF41E0E9DF81E090E039
:1009B0000895FB0101900020E9F73197AF01461B34
:1009C000570BDC01ED91FC910280F381E02D19942D
:1009D0008F929F92AF92BF920F931F93CF93DF930B
:1009E000CDB7DEB7A1970FB6F894DEBF0FBECDBF6F
:1009F00019A2423008F44AE08E010F5D1F4F842E89
:100A0000912CB12CA12CA50194010E94480EE62F37
:100A1000B901CA01EA30FCF4E05DD801EE938D0122
:100A2000232B242B252B79F790E080E0109721F0E1
:100A3000BD0189EC93E0BDDFA1960FB6F894DEBF4F
:100A40000FBECDBFDF91CF911F910F91BF90AF909F
:100A50009F908F900895E95CE0CFCF92DF92EF9264
:100A6000FF92CF93DF936B017C016DE289EC93E001
:100A700088DCEC0166277727CB016C197D098E098C
:100A80009F094AE0A5DF8C0F9D1FDF91CF91FF905A
:100A9000EF90DF90CF900895CF93DF93BC0189EC66
:100AA00093E087DFEC0160E372E089EC93E081DFA3
:100AB0008C0F9D1FDF91CF910895CF93DF9397FF08
:100AC0000CC0CBDFEC0160E372E089EC93E071DFF6
:100AD0008C0F9D1FDF91CF9108954AE079DFF2CF0F
:100AE000CF93DF93BC01990F880B990B97FF0CC034
:100AF000B4DFEC0160E372E089EC93E05ADF8C0F25
:100B00009D1FDF91CF9108954AE062DFF2CF4F92AF
:100B10005F926F927F928F929F92AF92BF92CF928D
:100B2000DF92EF92FF920F931F93CF936B017C01A3
:100B3000742EAC019B010E94D81063E372E0811116
:100B400026C046015701E894B7F82FEF3FEF4FE773
:100B50005FE7C501B4010E94D81081110CC02FEFCE
:100B60003FEF4FE75FE7C501B4010E94CF0E67E397
:100B700072E0181664F02FEF3FEF4FE75FE4C70114
:100B8000B6010E9471101816A4F46BE372E089ECB0
:100B900093E0CF911F910F91FF90EF90DF90CF9056
:100BA000BF90AF909F908F907F906F905F904F908D
:100BB00000CF2FEF3FEF4FE75FECC701B6010E9478
:100BC000CF0E87FDE2CF20E030E0A901C701B601DA
:100BD0000E94CF0E10E000E087FF09C06DE289ECB3
:100BE00093E0CFDB8C01F7FAF094F7F8F094C0E0D3
:100BF00060E070E080E09FE37C1641F020E030E0B0
:100C000040E251E40E94D30ECF5FF6CFA7019601D8
:100C10000E946B0E2B013C010E94400F4B015C01B6
:100C20004AE0D6DE7C01E00EF11ECC23B1F1C50115
:100C3000B4010E946C0F9B01AC01C301B2010E9480
:100C40006A0E4B015C016EE289EC93E09ADBE80EE0
:100C5000F91EC15010F120E030E040E251E4C5013E
:100C6000B4010E9475102B013C010E94400F4B0102
:100C7000B12CA12C4AE0C501B401AADEE80EF91E90
:100C8000C501B4010E946C0F9B01AC01C301B2010C
:100C90000E946A0E4B015C01DCCFC701CF911F910E
:100CA0000F91FF90EF90DF90CF90BF90AF909F900B
:100CB0008F907F906F905F904F900895CF93DF93C8
:100CC00026DFEC0160E372E089EC93E072DE8C0FCA
:100CD0009D1FDF91CF9108956CCE2F923F924F923E
:100CE0005F926F927F928F929F92AF92BF92CF92BC
:100CF000DF92EF92FF92CF93DF9300D000D0CDB779
:100D0000DEB76B017C0129833A834B835C8380913E
:100D10008904811104C080917D04882331F065E04D
:100D200070E080E090E079DCF2CF1092C503109281
:100D3000C6031092C7031092C8032091C1033091DB
:100D4000C2034091C3035091C403C701B601C2D787
:100D50004B015C0120E030E0A9010E9471101816DF
:100D600024F0B7FAB094B7F8B0948092BD03909293
:100D7000BE03A092BF03B092C0032091B90330918B
:100D8000BA034091BB035091BC0369817A818B8186
:100D90009C81A0D72B013C0120E030E0A9010E94FA
:100DA0007110181624F077FA709477F870944092C6
:100DB000B5035092B6036092B7037092B803A301D3
:100DC0009201C501B40187D720E030E0A901E7D73F
:100DD000811119C08FE392E026960FB6F894DEBF1A
:100DE0000FBECDBFDF91CF91FF90EF90DF90CF90FE
:100DF000BF90AF909F908F907F906F905F904F903B
:100E00003F902F9049CE62E572E089EC93E064DF79
:100E100042E0C701B6017BDE6FE572E089EC93E04A
:100E20005BDF42E050E069817A818B819C8146DF03
:100E30008091890490E054DE809189048111FFCF74
:100E4000C092B103D092B203E092B303F092B40324
:100E500089819A81AB81BC818093AD039093AE036D
:100E6000A093AF03B093B0038090C1039090C203EE
:100E7000A090C303B090C40391E09D83A5019401A9
:100E8000C701B6010E94711087FD1D824090B90311
:100E90005090BA036090BB037090BC03A1E0AE8396
:100EA000A301920169817A818B819C810E947110DA
:100EB00087FD1E82BD81BB2341F08E81882329F0EE
:100EC00081E08093AC038093AB03A5019401C7013B
:100ED000B60165D7F82EFF1CFF24FF1C9E819923C5
:100EE00039F0FF2029F01092AC0381E08093AB032E
:100EF000A301920169817A818B819C8150D7881FDF
:100F00008827881FFF2031F0882321F01092AC033E
:100F10001092AB03AD81AA2339F0882329F081E038
:100F20008093AC031092AB036091AC03809180047A
:100F3000C3DA6091AB0380917404BEDA81E692E07B
:100F4000ABDD2091C1033091C2034091C3035091A6
:100F5000C4036091B1037091B2038091B303909187
:100F6000B403B8D66B017C0160918604709187044C
:100F7000072E000C880B990BB1D79B01AC01C70160
:100F8000B60111D76B017C016091840470918504D6
:100F9000072E000C880B990BA1D79B01AC01C70150
:100FA000B6010E947510D5D76B017C0120E030E0BE
:100FB000A9010E94711018160CF0D2C0C701B60129
:100FC0005AD74B015C012091B9033091BA0340918B
:100FD000BB035091BC036091AD037091AE0380914F
:100FE000AF039091B00376D66B017C0160917A04D7
:100FF00070917B04072E000C880B990B6FD79B0117
:10100000AC01C701B601CFD66B017C0160917804B9
:1010100070917904072E000C880B990B5FD79B0108
:10102000AC01C701B6010E94751093D76B017C011A
:1010300020E030E0A9010E94711018160CF094C055
:10104000C701B60118D76B017C016FE672E089EC2D
:1010500093E042DE6091B1037091B2038091B303DB
:101060009091B40342E050E029DE68E772E089EC39
:1010700093E032DE6091AD037091AE038091AF03D7
:101080009091B00342E050E019DE61E872E089EC33
:1010900093E022DEC501B40110DD6FE872E089EC57
:1010A00093E01ADEC701B60108DD140125012C0CFE
:1010B0003D1C4E1C5F1CC201B10110D79B01AC014D
:1010C00060E070E080E89FE36ED66B017C014AE04F
:1010D00050E0F4DD20E034E244E75BE4C701B60110
:1010E0000E94751020E030E040E05EE3FED731D78B
:1010F000C2D64B013B016DE972E089EC93E0ECDD77
:10110000C401EEDC740197FE03C0B3E0EB0EF11CEA
:10111000F594E794F594E79465EA72E089EC93E03E
:10112000DBDDC701DDDC2092A7033092A8034092EB
:10113000A9035092AA036DEA72E089EC93E0CCDD3A
:101140006091A7037091A8038091A9039091AA03CD
:10115000B4DC82E0681671045CF484EB92E03CCE6F
:10116000C701B60190582CCFC701B60190586ACF7D
:10117000F89490928B0480928A04909297008092C7
:1011800096007894F894F0928F04E0928E04E11423
:10119000F104A9F58FEF9FEF909399008093980049
:1011A000789468E070E08AE894E083DB1092950020
:1011B0001092940080917100826080937100809100
:1011C000710081608093710081E08093890478943C
:1011D00026960FB6F894DEBF0FBECDBFDF91CF913C
:1011E000FF90EF90DF90CF90BF90AF909F908F9047
:1011F0007F906F905F904F903F902F900895F09266
:101200009900E0929800CCCF1F920F920FB60F92E8
:1012100011240BB60F922F933F934F935F936F93CD
:101220007F938F939F93AF93BF93EF93FF9389EC3B
:1012300093E085D8FF91EF91BF91AF919F918F91EE
:101240007F916F915F914F913F912F910F900BBEC6
:101250000F900FBE0F901F9018951F920F920FB610
:101260000F9211240BB60F922F938F939F93EF93AE
:10127000FF93E091D903F091DA038081E091DF03DD
:10128000F091E00382FD1DC090818091E2038F5FA9
:101290008F732091E303821741F0E091E203F0E0C5
:1012A000E753FC4F958F8093E203FF91EF919F915D
:1012B0008F912F910F900BBE0F900FBE0F901F902C
:1012C00018958081F2CF1F920F920FB60F921124C2
:1012D0002F933F938F939F93AF93BF9380919403EA
:1012E00090919503A0919603B09197033091930349
:1012F00023E0230F2D3758F50196A11DB11D209332
:1013000093038093940390939503A0939603B093D3
:1013100097038091980390919903A0919A03B091BB
:101320009B030196A11DB11D80939803909399038F
:10133000A0939A03B0939B03BF91AF919F918F911C
:101340003F912F910F900FBE0F901F90189526E898
:10135000230F0296A11DB11DD2CF1F920F920FB67F
:101360000F9211240BB60F922F933F934F935F93DD
:101370006F937F938F939F93AF93BF93EF93FF935D
:101380008091B900887F803609F44CC008F03FC0D6
:10139000883209F4A8C028F5803109F49CC0C8F44B
:1013A000882309F4FAC0883009F495C0FF91EF91C1
:1013B000BF91AF919F918F917F916F915F914F916D
:1013C0003F912F910F900BBE0F900FBE0F901F906B
:1013D0001895883109F487C0803241F780936F03F4
:1013E00014C0803409F49CC040F48033B9F38833CE
:1013F000E9F680936F0385ECAFC0803509F484C0B3
:10140000883509F495C0883489F637D9CFCF883923
:1014100009F48CC038F5883729F050F4883611F07B
:10142000803721F683E08093A20310926E0357C0A9
:10143000883809F47BC0803919F0803809F0B6CFBC
:1014400080916E03803208F071C0E0916E0381E0FC
:101450008E0F80936E038091BB00F0E0E25BFC4F47
:1014600080833DC0803B39F0E0F4803A09F479C0D4
:10147000883A09F09BCF84E08093A20310924D0339
:1014800010924C03E0919E03F0919F031995809177
:101490004C0381110FC081E080934C0310922C0308
:1014A00009C0803C09F4A7CF883C09F4A4CF883B4D
:1014B00009F07CCFE0914D0381E08E0F80934D03C6
:1014C000F0E0E45DFC4F80818093BB0090914D0380
:1014D00080914C0329C0809192038093BB0085ECDE
:1014E0008093BC0063CF90919103809190039817F3
:1014F00058F5E091910381E08E0F80939103F0E025
:10150000E059FC4F8081E9CFE091910381E08E0F9B
:10151000809391038091BB00F0E0E059FC4F808301
:1015200090919103809190039817C8F285E8D8CFE5
:10153000E091910381E08E0F809391038091BB0035
:10154000F0E0E059FC4F80838091A10381115DCFD1
:1015500081E08093A00384EA8093BC001092A203F0
:1015600025CF85EC8093BC001092A20380916E037E
:10157000803230F4E0916E03F0E0E25BFC4F1082C9
:1015800060916E0370E0E0919C03F0919D038EE406
:1015900093E0199510926E0309CF10926F0335CF27
:1015A0001F920F920FB60F9211240BB60F922F932A
:1015B0003F934F935F936F937F938F939F93AF93DB
:1015C000BF93EF93FF932F982D988091A70390914D
:1015D000A803A091A903B091AA030197A109B10999
:1015E0008093A7039093A803A093A903B093AA03A1
:1015F000892B8A2B8B2B21F58091B1039091B2031B
:10160000A091B303B091B4038093C1039093C2033C
:10161000A093C303B093C4038091AD039091AE0334
:10162000A091AF03B091B0038093B9039093BA0334
:10163000A093BB03B093BC030E941B0110928904CA
:10164000FF91EF91BF91AF919F918F917F916F919A
:101650005F914F913F912F910F900BBE0F900FBE56
:101660000F901F9018951F920F920FB60F92112492
:101670000BB60F928F929F92AF92BF92CF92DF9252
:10168000EF92FF922F933F934F935F936F937F93CC
:101690008F939F93AF93BF93EF93FF938091A70393
:1016A0009091A803A091A903B091AA03892B8A2B3A
:1016B0008B2B91F1C090C103D090C203E090C30383
:1016C000F090C4038090B1039090B203A090B30354
:1016D000B090B4032091AD033091AE034091AF03BD
:1016E0005091B0036091B9037091BA038091BB032C
:1016F0009091BC0354D3882339F0A5019401C7010C
:10170000B6014DD3811125C0A5019401C701B601D1
:1017100046D381111CC02F9AFF91EF91BF91AF91D9
:101720009F918F917F916F915F914F913F912F91F9
:10173000FF90EF90DF90CF90BF90AF909F908F90F1
:101740000F900BBE0F900FBE0F901F9018952D9A03
:10175000E3CF20E030E0A9016091C5037091C6039A
:101760008091C7039091C803BCD487FD1BC02F9AFA
:101770002091B5033091B6034091B7035091B8035F
:101780006091C5037091C6038091C7039091C8030F
:10179000A1D26093C5037093C6038093C70390934F
:1017A000C803BACF2D9A2091BD033091BE0340915A
:1017B000BF035091C0036091C5037091C60380912F
:1017C000C7039091C80387D2E4CFE9ECF3E013821A
:1017D000128288EE93E0A0E0B0E084839583A68334
:1017E000B78324E032E03183208325EC30E0358775
:1017F000248724EC30E03787268720EC30E0318BDB
:10180000208B21EC30E0338B228B22EC30E0358BC7
:10181000248B26EC30E0378B268B118E128E138EA4
:10182000148EE6E6F4E01382128284839583A68305
:10183000B78386E192E091838083E2E9F4E013824A
:10184000128288E292E09183808387E2848380E140
:10185000818782E082871386EEE7F4E012861386A2
:1018600089E090E0918380838CE090E09383828391
:101870008DE090E09583848380E991E0978386836F
:1018800024E030E031872087E2E7F4E01286138617
:1018900028E030E0318320832AE030E03383228364
:1018A0002BE030E0358324839783868381E090E0CA
:1018B000918780870895CF93DF9300D000D01F9247
:1018C0001F92CDB7DEB7789484B5826084BD84B5AD
:1018D000816084BD85B5826085BD85B5816085BD2B
:1018E00080916E00816080936E00109281008091E3
:1018F000810082608093810080918100816080936B
:101900008100809180008160809380008091B1008F
:1019100084608093B1008091B00081608093B000BA
:10192000809191008260809391008091910081600C
:1019300080939100809190008160809390008091CD
:10194000A10082608093A1008091A10081608093BA
:10195000A1008091A00081608093A000809121016E
:101960008260809321018091210181608093210117
:101970008091200181608093200180917A008460B1
:1019800080937A0080917A00826080937A008091BF
:101990007A00816080937A0080917A0080688093D9
:1019A0007A001092C10010929000109291008EE087
:1019B00090E098878F831C821B821A8219821E8274
:1019C0001D82F894809191008F778093910080918F
:1019D00091008F7B80939100809191008061809332
:1019E0009100809191008860809391008091900097
:1019F000826080939000809190008E7F8093900011
:101A000078946B817C81CE0101960E945904898172
:101A10009A81F8949A838983009711F48FEF9FEF4E
:101A2000909397008093960078948D819E81F8948E
:101A30009E838D83009711F48FEF9FEF9093990011
:101A40008093980078941092C1031092C203109270
:101A5000C3031092C4031092B9031092BA031092F8
:101A6000BB031092BC0384B1806F84B92F9880911E
:101A70000101806680930101809102018F7B809338
:101A80000201E091D903F091DA0382E08083E091D2
:101A9000D503F091D6031082E091D703F091D803DB
:101AA00080E180831092E103E091DD03F091DE0399
:101AB00086E08083E091DB03F091DC03808180612C
:101AC0008083E091DB03F091DC0380818860808378
:101AD000E091DB03F091DC03808180688083E091FA
:101AE000DB03F091DC0380818F7D80830E941B01EA
:101AF0001092A6031092A5031092A4031092A303C0
:101B00001092A20381E08093A1031092A00361E0F0
:101B100084E10E945C0261E085E10E945C028091A8
:101B2000B9008E7F8093B9008091B9008D7F80933A
:101B3000B90088E48093B80085E48093BC0087E511
:101B400091E090939F0380939E0388E591E09093AA
:101B50009D0380939C031092970480919C04823093
:101B600018F098E09093970480939A0462E370E0F1
:101B700080E090E00E940D0360919D0482E994E072
:101B80000E94F20368EE73E080E090E00E940D0393
:101B900060E382E994E00E94A9040BE416E4C80122
:101BA0000197F1F760E382E994E00E94A904C8017B
:101BB0000197F1F760E382E994E00E94A90483E5CC
:101BC00092E00197F1F760E282E994E00E94A904B3
:101BD00060919704606240E082E994E00E94BF0453
:101BE00084E08093980440E06CE082E994E00E94F5
:101BF000BF0440E061E082E994E00E94BF040BE38F
:101C00001FE1C8010197F1F782E08093990440E059
:101C100066E082E994E00E94BF0440E062E082E96D
:101C200094E00E94BF04C8010197F1F786EC92E0AE
:101C30000E944C0540E061E082E994E00E94BF040C
:101C4000C8010197F1F740E060E882E994E00E9462
:101C5000BF0488E080939D0460E082E994E00E94E4
:101C6000F2036FED72E082E994E036D820E030E0D4
:101C700040EA50E460E070E080E291E42ED820E099
:101C800030E0A901CA01B90128D80E942C02EECF88
:101C9000A1E21A2EAA1BBB1BFD010DC0AA1FBB1F70
:101CA000EE1FFF1FA217B307E407F50720F0A21BE2
:101CB000B30BE40BF50B661F771F881F991F1A944F
:101CC00069F760957095809590959B01AC01BD0179
:101CD000CF0108955058BB27AA270ED0B1C1A2D179
:101CE00030F0A7D120F031F49F3F11F41EF497C1DA
:101CF0000EF4E095E7FB64C1E92FB3D180F3BA1786
:101D0000620773078407950718F071F49EF5E2C126
:101D10000EF4E0950B2EBA2FA02D0B01B901900106
:101D20000C01CA01A0011124FF27591B99F0593F4A
:101D300050F4503E68F11A16F040A22F232F342F92
:101D40004427585FF3CF469537952795A795F040E0
:101D50005395C9F77EF41F16BA0B620B730B840BF5
:101D6000BAF09150A1F0FF0FBB1F661F771F881FAD
:101D7000C2F70EC0BA0F621F731F841F48F4879505
:101D800077956795B795F7959E3F08F0B3CF9395F4
:101D9000880F08F09927EE0F979587950895ECD056
:101DA00008F481E008950CD04BC143D140F03AD102
:101DB00030F021F45F3F19F003C151118CC12FC1E4
:101DC00050D198F39923C9F35523B1F3951B550BC3
:101DD000BB27AA2762177307840738F09F5F5F4FFE
:101DE000220F331F441FAA1FA9F333D00E2E3AF03F
:101DF000E0E830D091505040E695001CCAF729D059
:101E0000FE2F27D0660F771F881FBB1F26173707A7
:101E10004807AB07B0E809F0BB0B802DBF01FF27D7
:101E200093585F4F2AF09E3F510568F0C9C053C1D7
:101E30005F3FECF3983EDCF3869577956795B79511
:101E4000F7959F5FC9F7880F911D9695879597F92C
:101E50000895E1E0660F771F881FBB1F62177307A5
:101E60008407BA0720F0621B730B840BBA0BEE1FBA
:101E700088F7E095089504D06894B1112CC10895B5
:101E8000F8D088F09F5790F0B92F9927B751A0F05C
:101E9000D1F0660F771F881F991F1AF0BA95C9F7FE
:101EA00012C0B13081F016D1B1E0089513C1672F8F
:101EB000782F8827B85F39F0B93FCCF386957795AE
:101EC0006795B395D9F73EF4909580957095619597
:101ED0007F4F8F4F9F4F0895E89409C097FB3EF4C2
:101EE00090958095709561957F4F8F4F9F4F992367
:101EF000A9F0F92F96E9BB279395F69587957795E5
:101F00006795B795F111F8CFFAF4BB0F11F460FFA4
:101F10001BC06F5F7F4F8F4F9F4F16C0882311F0FC
:101F200096E911C0772321F09EE8872F762F05C010
:101F3000662371F096E8862F70E060E02AF09A95AB
:101F4000660F771F881FDAF7880F9695879597F9A0
:101F50000895A9D080F09F3740F491110EF0BBC0D6
:101F600060E070E080E89FEB089526F41B16611D89
:101F7000711D811D2BC045C0990F0008550FAA0B7C
:101F8000E0E8FEEF16161706E807F907C0F012168C
:101F90001306E407F50798F0621B730B840B950B8F
:101FA00039F40A2661F0232B242B252B21F40895E4
:101FB0000A2609F4A140A6958FEF811D811D089581
:101FC00097F99F6780E870E060E00895882371F4D6
:101FD000772321F09850872B762F07C0662311F4C2
:101FE00099270DC09051862B70E060E02AF09A95F9
:101FF000660F771F881FDAF7880F9695879597F9F0
:1020000008959F3F31F0915020F48795779567951B
:10201000B795880F911D9695879597F908959FEF2D
:1020200080EC089500240A9416161706180609066F
:10203000089500240A94121613061406050608953E
:10204000092E0394000C11F4882352F0BB0F40F4C6
:10205000BF2B11F460FF04C06F5F7F4F8F4F9F4F06
:10206000089557FD9058440F551F59F05F3F71F088
:102070004795880F97FB991F61F09F3F79F08795EF
:102080000895121613061406551FF2CF4695F1DF78
:1020900008C0161617061806991FF1CF8695710508
:1020A000610508940895E5DFA0F0BEE7B91788F44C
:1020B000BB279F3860F41616B11D672F782F88272D
:1020C000985FF7CF869577956795B11D939596396B
:1020D000C8F30895E894BB2766277727CB0197F9C3
:1020E00008954ADF08F48FEF08950BD0A9CF9ADF47
:1020F00028F09FDF18F0952309F062CF90CF1124CC
:10210000EACFAFDFA0F3959FD1F3950F50E0551FB5
:10211000629FF001729FBB27F00DB11D639FAA273C
:10212000F00DB11DAA1F649F6627B00DA11D661F8B
:10213000829F2227B00DA11D621F739FB00DA11DAC
:10214000621F839FA00D611D221F749F3327A00D66
:10215000611D231F849F600D211D822F762F6A2F02
:1021600011249F5750408AF0E1F088234AF0EE0F87
:10217000FF1FBB1F661F771F881F91505040A9F794
:102180009E3F510570F01CCFA6CF5F3FECF3983E09
:10219000DCF3869577956795B795F795E7959F5FFB
:1021A000C1F7FE2B880F911D9695879597F9089595
:1021B000E3DE880B990B0895EE0FFF1F881F8BBF7E
:0C21C0000790F691E02D1994F894FFCFE1
:1021CC0000000000C1012A0159010D028A016801B9
:1021DC007C0100000000C403980356046E039103B5
:1021EC007E036F0300000000D4042A01560455043A
:1021FC000D0A006E616E00696E66006F7666006E89
:10220C006F206D6F76656D656E74206E65656465A7
:10221C006400747279206D6F76696E6720746F201C
:10222C0000446972656374696F6E20534554007481
:10223C006172676574583D00746172676574593DCD
:10224C000070756C73656E6565646564583D0070EF
:10225C00756C73656E6565646564593D006E657774
:10226C00746F703D006E65774F43523D0073696724
:10227C006D613D00544F504F5645522F554E4445BD
:10228C0052464C4F5700496E74697469616C697A97
:10229C006174696F6E20436F6D706C657465004975
:0A22AC004E495420434D504C54009D
:00000001FF
