:10000000E8C0000017C1000015C1000013C10000C6
:1000100011C100000C94630B0C94590B0BC1000030
:1000200009C1000007C1000005C1000003C10000B4
:1000300001C10000FFC00000FDC00000FBC00000C7
:10004000F9C00000F7C00000F5C00000F3C00000D8
:10005000F1C00000EFC00000EDC000000C94F009FA
:10006000E9C000000C94BA090C949009E3C00000A8
:10007000E1C00000DFC00000DDC00000DBC0000008
:100080000C94230CD7C00000D5C000000C94C20B08
:10009000D1C00000CFC00000CDC000000C943A0ACF
:1000A000C9C00000C7C00000C5C00000C3C0000038
:1000B000C1C00000BFC00000BDC00000BBC0000048
:1000C000B9C00000B7C00000B5C00000B3C0000058
:1000D000B1C00000AFC00000ADC00000ABC0000068
:1000E000A9C0000000002200250028002B002E00DF
:1000F0003100340002010000050108010B01050573
:100100000505070508080808020202020A0A08088D
:1001100004040404010101010101010103030303BB
:1001200003030303040707070C0C0C0C0C0C0C0C4A
:100130000202020206060606060606060B0B0B0B5B
:100140000B0B0B0B01021020200808102040102080
:10015000408002010201080402010102040810208B
:100160004080804020100804020180040201804089
:1001700020100804020108040201010204081020F2
:100180004080010204081020408000000A0B020990
:100190000C0D0E0807030401000000000000000021
:1001A000000000000000000000000000000000004F
:1001B000000000000000121110000000000000000C
:1001C000000000000000000000000000000000002F
:1001D000D50C11241FBECFEFD1E2DEBFCDBF00E0B2
:1001E0000CBF13E0A0E0B2E0E4E5F2E200E00BBFF8
:1001F00002C007900D92AC31B107D9F724E0ACE111
:10020000B3E001C01D92A13BB207E1F710E0C9EED7
:10021000D0E000E006C021970109802FFE010E9476
:100220002011C83ED10780E00807A9F70E944B0DB6
:100230000C942811E5CEAF92BF92CF92DF92EF924D
:10024000FF920F931F93CF93DF936C017B018B0180
:10025000040F151FEB015E01AE18BF08C017D107D0
:1002600059F06991D601ED91FC910190F081E02D5A
:10027000C6011995892B79F7C501DF91CF911F919F
:100280000F91FF90EF90DF90CF90BF90AF900895C7
:10029000FC01538D448D252F30E0842F90E0821B8C
:1002A000930B541710F0CF96089501970895FC0111
:1002B000918D828D981761F0A28DAE0FBF2FB11D69
:1002C0005D968C91928D9F5F9F73928F90E00895C1
:1002D0008FEF9FEF0895FC01918D828D981731F07B
:1002E000828DE80FF11D858D90E008958FEF9FEFCF
:1002F0000895FC01918D228D892F90E0805C9F4FA5
:10030000821B91098F73992708958CED93E0F1DF9B
:1003100021E0892B09F420E0822F0895FC01A48DAF
:10032000A80FB92FB11DA35ABF4F2C91848D90E017
:1003300001968F739927848FA689B7892C93A089FA
:10034000B1898C91837080648C93938D848D981384
:1003500006C00288F389E02D80818F7D8083089517
:10036000EF92FF920F931F93CF93DF93EC0181E005
:10037000888F9B8D8C8D98131AC0E889F9898081AC
:1003800085FF15C09FB7F894EE89FF896083E889DF
:10039000F98980818370806480839FBF81E090E0D1
:1003A000DF91CF911F910F91FF90EF900895F62E5E
:1003B0000B8D10E00F5F1F4F0F731127E02E8C8DF8
:1003C0008E110BC00FB607FCFACFE889F98980813E
:1003D00085FFF5CFCE01A2DFF2CFEB8DEC0FFD2F25
:1003E000F11DE35AFF4FF0829FB7F8940B8FEA8913
:1003F000FB8980818062D0CFCF93DF93EC01888D21
:100400008823B1F0AA89BB89E889F9898C9185FD97
:1004100003C0808186FD0CC00FB607FCF7CF8C911E
:1004200085FFF2CF808185FFEDCFCE0177DFEACF68
:10043000DF91CF91089580E090E0892B21F065DF76
:1004400081110E94000080E090E0892B49F080E05B
:1004500090E0892B29F00E94000081110E94000089
:1004600080E090E0892B49F080E090E0892B29F032
:100470000E94000081110E94000080E090E0892B22
:1004800049F080E090E0892B29F00E940000811162
:100490000C9400000895282F30E0F901E657FE4F34
:1004A0009491F901EC5BFE4F449122503F4FF901CA
:1004B0002491222309F435C0992311F191509231EE
:1004C000F8F4E92FF0E08827E759FD4F8F4F0C949F
:1004D00020119A029E027B02920296028002A102E1
:1004E000A702AB02B102B502B902BF02C302800289
:1004F000C702CD02D102809180008F778093800067
:10050000E22FF0E0EE0FFF1FEC51FF4FA591B491E9
:100510008FB7F894EC91611148C040954E234C93ED
:100520008FBF0895809180008F7DE8CF80918000FB
:10053000877FE4CF84B58F7784BDE2CF84B58F7D8C
:10054000FBCF8091B0008F778093B000D9CF80919E
:10055000B0008F7DF9CF809190008F7780939000CD
:10056000CFCF809190008F7DF9CF80919000877FD1
:10057000F5CF8091A0008F778093A000C1CF8091AC
:10058000A0008F7DF9CF8091A000877FF5CF80916B
:1005900020018F7780932001B3CF809120018F7D40
:1005A000F9CF80912001877FF5CF4E2BB8CF3FB791
:1005B000F8948091D0039091D103A091D203B0918F
:1005C000D30326B5A89B05C02F3F19F00196A11DA6
:1005D000B11D3FBFBA2FA92F982F8827BC01CD018D
:1005E000620F711D811D911D42E0660F771F881FEC
:1005F000991F4A95D1F708951F93CF93DF93C1E0D8
:10060000C0936003882379F1D091B8001091BA00AB
:100610008091BC008A7B8093BC0060E084E13BDF7A
:1006200060E085E138DF1092A503C093A703109224
:10063000A60361E084E12FDF61E085E12CDF80919A
:10064000B9008E7F8093B9008091B9008D7F80932F
:10065000B90088E48093B80085E48093BC001093CF
:10066000BA00D093B800DF91CF911F9108952091E7
:100670008103260F3327331F21323105ECF42091FB
:10068000A503FC0190E080E0243069F082E0089549
:10069000A09181032191AC014F595C4FA40FB52F5C
:1006A000B11D2C930196861798F380918103680FF2
:1006B0006093810380E0089581E0089508958FEFAD
:1006C0009FEF08958FEF9FEF089580915A0390E078
:1006D0009195819591090895CF92DF92EF92FF92C3
:1006E0000F931F93CF93DF937C01CB018A0120915D
:1006F0005903222389F0EB016B01C40ED51ECC15E2
:10070000DD0561F06991D701ED91FC910190F081D7
:10071000E02DC7011995F3CF642FA9DFC801DF9140
:10072000CF911F910F91FF90EF90DF90CF900895A0
:10073000CF93DF931F92CDB7DEB769832091590322
:100740002223F9F020915803203258F021E030E0C4
:10075000FC013383228390E080E00F90DF91CF9102
:10076000089580915703E82FF0E0E95CFC4F9981F0
:1007700090838F5F809357038093580381E090E0CC
:10078000ECCF61E0CE01019672DFF8CFCF92DF921D
:10079000EF92FF920F931F93CF93DF93FC01C481DD
:1007A00021E020935903C09336031092570310920F
:1007B00058038385682B89E794E0BADFD09158030A
:1007C000D13208F08CC0F3DE6B017C018091A5036F
:1007D000811162C082E08093A50381E08093A7032A
:1007E0008FEF8093A4031092C903D093C803A7E3AB
:1007F000B3E0E8EAF3E080E0D81380C01092CA03C7
:100800008091CA03CC0FC82BC093CA038091A60362
:10081000813009F077C01092A603C9DE6B017C011C
:100820008091CA038093BB0080915C0390915D032B
:10083000A0915E03B0915F03892B8A2B8B2B91F0E3
:10084000B6DE00915C0310915D0320915E03309150
:100850005F036C197D098E099F0906171707280782
:100860003907D0F18091BC0083FDDACF85EC80930D
:10087000BC009DDE6B017C018091A503823009F4F0
:1008800043C08091A4038F3F51F18091A403803233
:1008900031F18091A40323C080915C0390915D03AA
:1008A000A0915E03B0915F03892B8A2B8B2B09F4F7
:1008B0008DCF7DDE00915C0310915D0320915E037E
:1008C00030915F036C197D098E099F090617170780
:1008D0002807390708F07ACF80915B038DDE1092EC
:1008E00057031092580310925903DF91CF911F9133
:1008F0000F91FF90EF90DF90CF9008959D9191938D
:100900008F5F7ACF85EEB3CF80915C0390915D03CA
:10091000A0915E03B0915F03892B8A2B8B2B09F486
:10092000ABCF45DE00915C0310915D0320915E0327
:1009300030915F036C197D098E099F09061717070F
:100940002807390708F098CFC7CF089590E080E0D6
:100950000895FC01738362836830710579F154F462
:100960006115710519F061307105F9F08091910000
:100970008B7F35C06115F1E07F0771F1611584E06F
:10098000780799F16034710589F7809191008B7F28
:10099000809391008091910082608093910080917A
:1009A00091008160809391000895809191008B7FE8
:1009B00080939100809191008D7FEFCF8091910085
:1009C0008B7F809391008091910082608093910051
:1009D000809191008E7FE6CF80919100846080931A
:1009E0009100809191008D7FF1CF80919100846082
:1009F000DFCFFC0101900020E9F73197AF01481BE0
:100A0000590BBC018CED93E016CC8F929F92AF9264
:100A1000BF920F931F93CF93DF93CDB7DEB7A1970C
:100A20000FB6F894DEBF0FBECDBF19A2423008F456
:100A30004AE08E010F5D1F4F842E912CB12CA12C0A
:100A4000A50194010E948C0EE62FB901CA01EA307B
:100A5000ECF4E05DD801EE938D01232B242B252BA4
:100A600079F790E080E0109711F0CD01C2DFA196F8
:100A70000FB6F894DEBF0FBECDBFDF91CF911F91AF
:100A80000F91BF90AF909F908F900895E95CE2CF57
:100A9000CF92DF92EF92FF92CF93DF936B017C01B5
:100AA0006DE28CED93E05CDCEC0166277727CB01EF
:100AB0006C197D098E099F094AE0A7DF8C0F9D1FE5
:100AC000DF91CF91FF90EF90DF90CF900895CF937B
:100AD000DF938FDFEC0180E392E08BDF8C0F9D1FB3
:100AE000DF91CF910895CF93DF9397FF0AC0D0DFB6
:100AF000EC0180E392E07DDF8C0F9D1FDF91CF91B1
:100B000008954AE082DFF4CFCF93DF93BC01990FC1
:100B1000880B990B97FF0AC0BBDFEC0180E392E0E2
:100B200068DF8C0F9D1FDF91CF9108954AE06DDF44
:100B3000F4CF4F925F926F927F928F929F92AF927B
:100B4000BF92CF92DF92EF92FF920F931F93CF93BA
:100B50006B017C01742EAC019B010E941C11882347
:100B600091F083E392E0CF911F910F91FF90EF906E
:100B7000DF90CF90BF90AF909F908F907F906F90BD
:100B80005F904F9036CF46015701E894B7F82FEFAA
:100B90003FEF4FE75FE7C501B4010E941C118111CF
:100BA0000DC02FEF3FEF4FE75FE7C501B4010E9493
:100BB000130F18161CF487E392E0D5CF2FEF3FEF09
:100BC0004FE75FE4C701B6010E94B51018161CF488
:100BD0008BE392E0C8CF2FEF3FEF4FE75FECC70109
:100BE000B6010E94130F87FDF3CF20E030E0A9018A
:100BF000C701B6010E94130F10E000E087FF09C093
:100C00006DE28CED93E0ACDB8C01F7FAF094F7F831
:100C1000F094C0E060E070E080E09FE37C1641F07B
:100C200020E030E040E251E40E94170FCF5FF6CFA2
:100C3000A70196010E94AF0E2B013C010E94840F78
:100C40004B015C014AE0E1DE7C01E00EF11ECC23A9
:100C5000B1F1C501B4010E94B00F9B01AC01C30109
:100C6000B2010E94AE0E4B015C016EE28CED93E08E
:100C700077DBE80EF91EC15010F120E030E040E2D1
:100C800051E4C501B4010E94B9102B013C010E943E
:100C9000840F4B01B12CA12C4AE0C501B401B5DE93
:100CA000E80EF91EC501B4010E94B00F9B01AC0112
:100CB000C301B2010E94AE0E4B015C01DCCFC70143
:100CC000CF911F910F91FF90EF90DF90CF90BF9049
:100CD000AF909F908F907F906F905F904F9008950E
:100CE000CF93DF9326DFEC0180E392E082DE8C0F6E
:100CF0009D1FDF91CF9108950F931F93CF938C0188
:100D0000C62F646043DD6C2F6B7FC8013FDD83EC31
:100D100090E00197F1F7CF911F910F9108950F93F4
:100D20001F93CF93DF938C01C62FD62FD07FD16036
:100D30006D2F2CDD6D2FC801DFDF80E1C89FE00142
:100D40001124C1606C2FC80121DD6C2FC801D4DFD4
:100D500081E090E0DF91CF911F910F91089585ED93
:100D60008093BC0080915C0390915D03A0915E0331
:100D7000B0915F030796A11DB11D23E0B695A7951D
:100D8000979587952A95D1F72091BC0024FD03C043
:100D90001092A503089540915C0350915D0360910A
:100DA0005E0370915F03452B462B472B69F3009739
:100DB000A105B10541F025E32A95F1F7000001975F
:100DC000A109B109E1CF80915B0316CC4F925F92EC
:100DD0006F927F928F929F92AF92BF92CF92DF924B
:100DE000EF92FF920F931F93CF93DF9300D000D029
:100DF00000D01F92CDB7DEB769837A838B839C8343
:100E000049015A01ED82FE820F83188780919C046C
:100E1000811104C080919004882319F1C8DB6B0113
:100E20007C0195E0492E512C612C712CC0DB6C1992
:100E30007D098E099F09683E734081059105B0F3D5
:100E400021E0421A51086108710888EEC80E83E05B
:100E5000D81EE11CF11C411451046104710431F7E6
:100E6000D5CF1092260310922703109228031092D8
:100E700029032091D8033091D9034091DA0350918E
:100E8000DB0369817A818B819C8168D76B017C014E
:100E900020E030E0A9010E94B510181624F0F7FAFE
:100EA000F094F7F8F094C0921E03D0921F03E092E2
:100EB0002003F09221032091D4033091D503409177
:100EC000D6035091D703C501B40148D72B013C018B
:100ED00020E030E0A9010E94B510181624F077FA3E
:100EE000709477F87094409222035092230360929A
:100EF000240370922503A3019201C701B6012FD7E5
:100F000020E030E0A9018FD7811119C08FE392E072
:100F10002A960FB6F894DEBF0FBECDBFDF91CF91FA
:100F20001F910F91FF90EF90DF90CF90BF90AF9007
:100F30009F908F907F906F905F904F90C8CD82E58B
:100F400092E057DD42E069817A818B819C81F1DDFD
:100F50008FE592E04EDD42E050E0C501B401C0DE15
:100F600080919C0490E0D0DD80919C048111FFCFA2
:100F700089819A81AB81BC81809332039093330342
:100F8000A0933403B093350380922E0390922F03E5
:100F9000A0923003B0923103C090D803D090D9030F
:100FA000E090DA03F090DB0391E09A8729813A819F
:100FB0004B815C81C701B60136D718160CF41A862E
:100FC0004090D4035090D5036090D6037090D7031F
:100FD000A1E0A987A5019401C301B20124D7181685
:100FE0000CF41986BA85BB2341F02985222329F008
:100FF00081E080931D0380931C0311E029813A81D5
:101000004B815C81C701B6010E94B51018160CF027
:1010100010E08985882339F0112329F010921D03EF
:1010200081E080931C0391E09983A5019401C301A1
:10103000B2010E94B51018160CF01982112339F074
:10104000A981AA2321F010921D0310921C03BA85D6
:10105000BB2341F02981222329F081E080931D03E5
:1010600010921C0360911D038091930414DA609127
:101070001C03809187040FDA81E692E028DD20913D
:10108000D8033091D9034091DA035091DB0360918A
:1010900032037091330380913403909135035ED60F
:1010A0006B017C016091990470919A04072E000CE9
:1010B000880B990B57D79B01AC01C701B601B7D676
:1010C0006B017C016091970470919804072E000CCD
:1010D000880B990B47D79B01AC01C701B6010E9451
:1010E000B9107BD76B017C0120E030E0A9010E94A0
:1010F000B51018160CF0C0C0C701B60100D74B01DF
:101100005C012091D4033091D5034091D6035091D6
:10111000D70360912E0370912F038091300390913B
:1011200031031CD66B017C0160918D0470918E049B
:10113000072E000C880B990B15D79B01AC01C7013A
:10114000B60175D66B017C0160918B0470918C04A3
:10115000072E000C880B990B05D79B01AC01C7012A
:10116000B6010E94B91039D76B017C0120E030E054
:10117000A901FBD718160CF083C0C701B601BFD672
:101180006B017C018FE692E034DC60913203709158
:101190003303809134039091350342E050E0A0DDA9
:1011A00088E792E026DC60912E0370912F038091F6
:1011B00030039091310342E050E092DD81E892E00B
:1011C00018DCC501B4018FDC8FE892E012DCC701A6
:1011D000B60189DC8C0C9D1CAE1CBF1CC501B40182
:1011E000C1D69B01AC016D817E818F8198851FD610
:1011F0006B017C014AE050E073DD20E034E244E71B
:101200005BE4C701B601B5D720E030E040E05EE323
:10121000B0D7E3D674D62B016B018DE992E0E9DB00
:10122000C20172DC720157FE03C083E0E80EF11CBC
:10123000F594E794F594E79485EA92E0DADBC70148
:1012400063DC80922A0390922B03A0922C03B0922D
:101250002D038DEA92E0CDDB60912A0370912B0380
:1012600080912C0390912D033EDC92E0C916D104AD
:101270005CF484EB92E04CCEC701B60190583ECFAF
:10128000C701B60190587BCFF89450929E044092CB
:101290009D0450929700409296007894F894F092B2
:1012A000A204E092A104E114F104A9F58FEF9FEFED
:1012B0009093990080939800789468E070E08DE9AD
:1012C00094E047DB10929500109294008091710099
:1012D00082608093710080917100816080937100C1
:1012E00081E080939C0478942A960FB6F894DEBF30
:1012F0000FBECDBFDF91CF911F910F91FF90EF9067
:10130000DF90CF90BF90AF909F908F907F906F9025
:101310005F904F900895F0929900E0929800CCCFA2
:101320001F920F920FB60F9211240BB60F922F93AC
:101330003F934F935F936F937F938F939F93AF935D
:10134000BF93EF93FF938CED93E00E948E01FF918A
:10135000EF91BF91AF919F918F917F916F915F912D
:101360004F913F912F910F900BBE0F900FBE0F909A
:101370001F9018951F920F920FB60F9211240BB663
:101380000F922F938F939F93EF93FF93E091EC0332
:10139000F091ED038081E091F203F091F30382FD7F
:1013A0001DC090818091F5038F5F8F732091F603AC
:1013B000821741F0E091F503F0E0E452FC4F958F85
:1013C0008093F503FF91EF919F918F912F910F9053
:1013D0000BBE0F900FBE0F901F9018958081F2CF1B
:1013E0001F920F920FB60F9211242F933F938F935A
:1013F0009F93AF93BF938091CC039091CD03A09125
:10140000CE03B091CF033091CB0323E0230F2D37D0
:1014100058F50196A11DB11D2093CB038093CC03F9
:101420009093CD03A093CE03B093CF038091D003CC
:101430009091D103A091D203B091D3030196A11D45
:10144000B11D8093D0039093D103A093D203B093A6
:10145000D303BF91AF919F918F913F912F910F90A7
:101460000FBE0F901F90189526E8230F0296A11D1E
:10147000B11DD2CF1F920F920FB60F9211240BB64F
:101480000F922F933F934F935F936F937F938F931D
:101490009F93AF93BF93EF93FF938091B900887FA1
:1014A000803609F44CC008F03FC0883209F4A6C069
:1014B00028F5803109F49AC0C8F4882309F4F6C0ED
:1014C000883009F493C0FF91EF91BF91AF919F9144
:1014D0008F917F916F915F914F913F912F910F90DD
:1014E0000BBE0F900FBE0F901F901895883109F416
:1014F00085C0803241F78093A40314C0803409F47E
:101500009AC040F48033B9F38833E9F68093A4039A
:1015100085ECADC0803509F482C0883509F493C0EC
:10152000883489F61CDCCFCF883909F48AC038F5B5
:10153000883729F050F4883611F0803721F683E09F
:101540008093A5031092A30355C0883809F479C08D
:10155000803919F0803809F0B6CF8091A30380322A
:1015600008F06FC0E091A30381E08E0F8093A30386
:101570008091BB00F0E0ED57FC4F80833BC0803B87
:1015800039F0D0F4803A09F477C0883A09F09BCF5B
:1015900084E08093A5031092820310928103F0E00F
:1015A000E0E019958091810381110FC081E0809363
:1015B00081031092610309C0803C09F4A9CF883CE3
:1015C00009F4A6CF883B09F07ECFE091820381E049
:1015D0008E0F80938203F0E0EF59FC4F808180935F
:1015E000BB00909182038091810329C08091CA033E
:1015F0008093BB0085EC8093BC0065CF9091C903BC
:101600008091C803981758F5E091C90381E08E0FC7
:101610008093C903F0E0E855FC4F8081E9CFE09169
:10162000C90381E08E0F8093C9038091BB00F0E075
:10163000E855FC4F80839091C9038091C8039817A7
:10164000C8F285E8D8CFE091C90381E08E0F80937E
:10165000C9038091BB00F0E0E855FC4F8083809186
:10166000A70381115FCF81E08093A60384EA809372
:10167000BC001092A50327CF85EC8093BC0010928C
:10168000A5038091A303803230F4E091A303F0E03E
:10169000ED57FC4F10826091A30370E083E893E064
:1016A000F0E0E0E019951092A3030DCF1092A4038F
:1016B00039CF1F920F920FB60F9211240F900FBEC9
:1016C0000F901F9018951F920F920FB60F92112432
:1016D0000BB60F92EF92FF920F931F932F933F93AE
:1016E0004F935F936F937F938F939F93AF93BF932A
:1016F000EF93FF93F89487EF92E0E9D91092D80323
:101700001092D9031092DA031092DB031092D403E3
:101710001092D5031092D6031092D7031092320381
:1017200010923303109234031092350310922E035B
:1017300010922F0310923003109231037894E12C11
:10174000F12C00E410E420E030E0A90160E070E05A
:1017500080E291E43BDBFF91EF91BF91AF919F91CC
:101760008F917F916F915F914F913F912F911F9139
:101770000F91FF90EF900F900BBE0F900FBE0F9048
:101780001F9018951F920F920FB60F9211248F93EE
:101790009F93AF93BF932F982D9880912A03909198
:1017A0002B03A0912C03B0912D030197A109B1093E
:1017B00080932A0390932B03A0932C03B0932D03C3
:1017C000892B8A2B8B2BB1F58091320390913303B7
:1017D000A0913403B09135038093D8039093D9033B
:1017E000A093DA03B093DB0380912E0390912F0333
:1017F000A0913003B09131038093D4039093D5032B
:10180000A093D603B093D703809171008B7F809310
:10181000710080917100877F8093710080917100C9
:101820008D7F80937100809171008E7F8093710015
:1018300010929C04BF91AF919F918F910F900FBE1A
:101840000F901F9018951F920F920FB60F921124B0
:101850000BB60F928F929F92AF92BF92CF92DF9270
:10186000EF92FF922F933F934F935F936F937F93EA
:101870008F939F93AF93BF93EF93FF9380912A032E
:1018800090912B03A0912C03B0912D03892B8A2BCF
:101890008B2B91F1C090D803D090D903E090DA035C
:1018A000F090DB038090320390903303A0903403D8
:1018B000B090350320912E0330912F0340913003D7
:1018C000509131036091D4037091D5038091D60378
:1018D0009091D703A8D2882339F0A5019401C701BC
:1018E000B601A1D2811125C0A5019401C701B6019D
:1018F0009AD281111CC02D9AFF91EF91BF91AF91A7
:101900009F918F917F916F915F914F913F912F9117
:10191000FF90EF90DF90CF90BF90AF909F908F900F
:101920000F900BBE0F900FBE0F901F9018952F9A1F
:10193000E3CF20E030E0A9016091260370912703F6
:10194000809128039091290310D487FD1BC02F9A02
:1019500020912203309123034091240350912503C9
:1019600060912603709127038091280390912903A9
:10197000F5D16093260370932703809328039093F7
:101980002903BACF2D9A20911E0330911F03409155
:1019900020035091210360912603709127038091C9
:1019A000280390912903DBD1E4CFECEDF3E013821F
:1019B000128288EE93E0A0E0B0E084839583A68352
:1019C000B78324E032E03183208325EC30E0358793
:1019D000248724EC30E03787268720EC30E0318BF9
:1019E000208B21EC30E0338B228B22EC30E0358BE6
:1019F000248B26EC30E0378B268B118E128E138EC3
:101A0000148EE9E7F4E01382128284839583A6831F
:101A1000B78386E192E091838083E5EAF4E0138264
:101A2000128288E292E09183808387E2848380E15E
:101A3000818782E082871386E1E9F4E012861386CB
:101A400089E090E0918380838CE090E093838283AF
:101A50008DE090E09583848380E991E0978386838D
:101A600024E030E031872087E5E8F4E01286138631
:101A700028E030E0318320832AE030E03383228382
:101A80002BE030E0358324839783868381E090E0E8
:101A9000918780870895CF93DF9300D000D01F9265
:101AA0001F92CDB7DEB7789484B5826084BD84B5CB
:101AB000816084BD85B5826085BD85B5816085BD49
:101AC00080916E00816080936E0010928100809101
:101AD0008100826080938100809181008160809389
:101AE0008100809180008160809380008091B100AE
:101AF00084608093B1008091B00081608093B000D9
:101B0000809191008260809391008091910081602A
:101B100080939100809190008160809390008091EB
:101B2000A10082608093A1008091A10081608093D8
:101B3000A1008091A00081608093A000809121018C
:101B40008260809321018091210181608093210135
:101B50008091200181608093200180917A008460CF
:101B600080937A0080917A00826080937A008091DD
:101B70007A00816080937A0080917A0080688093F7
:101B80007A001092C10010929000109291008EE0A5
:101B900090E098878F831C821B821A8219821E8292
:101BA0001D82F894809191008F77809391008091AD
:101BB00091008F7B80939100809191008061809350
:101BC00091008091910088608093910080919000B5
:101BD000826080939000809190008E7F809390002F
:101BE00078946B817C81CE0101960E94A904898141
:101BF0009A81F8949A838983009711F48FEF9FEF6D
:101C0000909397008093960078948D819E81F894AC
:101C10009E838D83009711F48FEF9FEF909399002F
:101C20008093980078941092D8031092D903109260
:101C3000DA031092DB031092D4031092D5031092B2
:101C4000D6031092D70384B1806F84B985B18F70A9
:101C500085B9809101018066809301018091020124
:101C60008F7B8093020180B38C7F80BB8DB18063BA
:101C70008DB980916A008A6080936A0080916A00C1
:101C8000856080936A008DB380638DBBE091EC0327
:101C9000F091ED0382E08083E091E803F091E903A5
:101CA0001082E091EA03F091EB0380E180831092CF
:101CB000F403E091F003F091F10386E08083E0917A
:101CC000EE03F091EF03808180618083E091EE0369
:101CD000F091EF03808188608083E091EE03F091C2
:101CE000EF03808180688083E091EE03F091EF0341
:101CF00080818F7D808386EC92E00E946705E12CD5
:101D0000F12C0AEF13E420E030E0A90160E070EC70
:101D100089E794EC5BD8F3CFA1E21A2EAA1BBB1B78
:101D2000FD010DC0AA1FBB1FEE1FFF1FA217B307A7
:101D3000E407F50720F0A21BB30BE40BF50B661FBD
:101D4000771F881F991F1A9469F760957095809581
:101D500090959B01AC01BD01CF0108955058BB2760
:101D6000AA270ED0B1C1A2D130F0A7D120F031F412
:101D70009F3F11F41EF497C10EF4E095E7FB64C198
:101D8000E92FB3D180F3BA17620773078407950769
:101D900018F071F49EF5E2C10EF4E0950B2EBA2F07
:101DA000A02D0B01B90190010C01CA01A001112461
:101DB000FF27591B99F0593F50F4503E68F11A160D
:101DC000F040A22F232F342F4427585FF3CF46959E
:101DD00037952795A795F0405395C9F77EF41F16C0
:101DE000BA0B620B730B840BBAF09150A1F0FF0F8A
:101DF000BB1F661F771F881FC2F70EC0BA0F621F76
:101E0000731F841F48F4879577956795B795F79565
:101E10009E3F08F0B3CF9395880F08F09927EE0FF7
:101E2000979587950895ECD008F481E008950CD03B
:101E30004BC143D140F03AD130F021F45F3F19F06B
:101E400003C151118CC12FC150D198F39923C9F30B
:101E50005523B1F3951B550BBB27AA2762177307B0
:101E6000840738F09F5F5F4F220F331F441FAA1F64
:101E7000A9F333D00E2E3AF0E0E830D09150504024
:101E8000E695001CCAF729D0FE2F27D0660F771FD2
:101E9000881FBB1F261737074807AB07B0E809F0B4
:101EA000BB0B802DBF01FF2793585F4F2AF09E3F49
:101EB000510568F0C9C053C15F3FECF3983EDCF3B5
:101EC000869577956795B795F7959F5FC9F7880FC2
:101ED000911D9695879597F90895E1E0660F771F14
:101EE000881FBB1F621773078407BA0720F0621BA5
:101EF000730B840BBA0BEE1F88F7E095089504D09E
:101F00006894B1112CC10895F8D088F09F5790F0D3
:101F1000B92F9927B751A0F0D1F0660F771F881F0E
:101F2000991F1AF0BA95C9F712C0B13081F016D1D5
:101F3000B1E0089513C1672F782F8827B85F39F073
:101F4000B93FCCF3869577956795B395D9F73EF46D
:101F500090958095709561957F4F8F4F9F4F089515
:101F6000E89409C097FB3EF4909580957095619533
:101F70007F4F8F4F9F4F9923A9F0F92F96E9BB27E9
:101F80009395F695879577956795B795F111F8CF65
:101F9000FAF4BB0F11F460FF1BC06F5F7F4F8F4FD0
:101FA0009F4F16C0882311F096E911C0772321F0C6
:101FB0009EE8872F762F05C0662371F096E8862F5E
:101FC00070E060E02AF09A95660F771F881FDAF7B5
:101FD000880F9695879597F90895A9D080F09F3737
:101FE00040F491110EF0BBC060E070E080E89FEB20
:101FF000089526F41B16611D711D811D2BC045C05F
:10200000990F0008550FAA0BE0E8FEEF1616170609
:10201000E807F907C0F012161306E407F50798F071
:10202000621B730B840B950B39F40A2661F0232B8A
:10203000242B252B21F408950A2609F4A140A69506
:102040008FEF811D811D089597F99F6780E870E0EB
:1020500060E00895882371F4772321F09850872B4E
:10206000762F07C0662311F499270DC09051862B57
:1020700070E060E02AF09A95660F771F881FDAF704
:10208000880F9695879597F908959F3F31F0915065
:1020900020F4879577956795B795880F911D96954C
:1020A000879597F908959FEF80EC089500240A948E
:1020B0001616170618060906089500240A94121623
:1020C0001306140605060895092E0394000C11F456
:1020D000882352F0BB0F40F4BF2B11F460FF04C003
:1020E0006F5F7F4F8F4F9F4F089557FD9058440F5C
:1020F000551F59F05F3F71F04795880F97FB991F67
:1021000061F09F3F79F08795089512161306140623
:10211000551FF2CF4695F1DF08C0161617061806B0
:10212000991FF1CF86957105610508940895E5DF43
:10213000A0F0BEE7B91788F4BB279F3860F41616E5
:10214000B11D672F782F8827985FF7CF86957795F1
:102150006795B11D93959639C8F30895E894BB2708
:1021600066277727CB0197F908954ADF08F48FEFA8
:1021700008950BD0A9CF9ADF28F09FDF18F09523A0
:1021800009F062CF90CF1124EACFAFDFA0F3959F83
:10219000D1F3950F50E0551F629FF001729FBB274E
:1021A000F00DB11D639FAA27F00DB11DAA1F649FFA
:1021B0006627B00DA11D661F829F2227B00DA11DAD
:1021C000621F739FB00DA11D621F839FA00D611D33
:1021D000221F749F3327A00D611D231F849F600D54
:1021E000211D822F762F6A2F11249F5750408AF08D
:1021F000E1F088234AF0EE0FFF1FBB1F661F771F19
:10220000881F91505040A9F79E3F510570F01CCF98
:10221000A6CF5F3FECF3983EDCF386957795679504
:10222000B795F795E7959F5FC1F7FE2B880F911D36
:102230009695879597F90895E3DE880B990B089595
:10224000EE0FFF1F881F8BBF0790F691E02D1994AA
:04225000F894FFCF30
:1022540000000000B0011B014801FC017901570195
:102264006B010000000098036C03A6045E03650381
:1022740062035F03000000008F061B01A604A5048F
:102284000D0A006E616E00696E66006F7666006E00
:102294006F206D6F76656D656E74206E656564651F
:1022A4006400747279206D6F76696E6720746F2094
:1022B40000446972656374696F6E205345540074F9
:1022C4006172676574583D00746172676574593D45
:1022D4000070756C73656E6565646564583D007067
:1022E400756C73656E6565646564593D006E6577EC
:1022F400746F703D006E65774F43523D007369679C
:102304006D613D00544F504F5645522F554E444534
:1023140052464C4F570046696E64696E67205A6591
:10232400726F20706F696E74206F66205820617818
:1023340069732C20706C65617365207374616E64BD
:102344002062792E2E2E0058206C696D69742074D9
:1023540072696767657265642C205820706F7369B1
:0C23640074696F6E2072657365742E0042
:00000001FF
