:10000000E8C0000017C1000015C1000013C10000C6
:1000100011C100000C94630B0C94590B0BC1000030
:1000200009C1000007C1000005C1000003C10000B4
:1000300001C10000FFC00000FDC00000FBC00000C7
:10004000F9C00000F7C00000F5C00000F3C00000D8
:10005000F1C00000EFC00000EDC000000C94F009FA
:10006000E9C000000C94BA090C949009E3C00000A8
:10007000E1C00000DFC00000DDC00000DBC0000008
:100080000C94230CD7C00000D5C000000C94C20B08
:10009000D1C00000CFC00000CDC000000C943A0ACF
:1000A000C9C00000C7C00000C5C00000C3C0000038
:1000B000C1C00000BFC00000BDC00000BBC0000048
:1000C000B9C00000B7C00000B5C00000B3C0000058
:1000D000B1C00000AFC00000ADC00000ABC0000068
:1000E000A9C0000000002200250028002B002E00DF
:1000F0003100340002010000050108010B01050573
:100100000505070508080808020202020A0A08088D
:1001100004040404010101010101010103030303BB
:1001200003030303040707070C0C0C0C0C0C0C0C4A
:100130000202020206060606060606060B0B0B0B5B
:100140000B0B0B0B01021020200808102040102080
:10015000408002010201080402010102040810208B
:100160004080804020100804020180040201804089
:1001700020100804020108040201010204081020F2
:100180004080010204081020408000000A0B020990
:100190000C0D0E0807030401000000000000000021
:1001A000000000000000000000000000000000004F
:1001B000000000000000121110000000000000000C
:1001C000000000000000000000000000000000002F
:1001D000D50C11241FBECFEFD1E2DEBFCDBF00E0B2
:1001E0000CBF13E0A0E0B2E0E4E5F2E200E00BBFF8
:1001F00002C007900D92AC31B107D9F724E0ACE111
:10020000B3E001C01D92A13BB207E1F710E0C9EED7
:10021000D0E000E006C021970109802FFE010E9476
:100220002011C83ED10780E00807A9F70E944B0DB6
:100230000C942811E5CEAF92BF92CF92DF92EF924D
:10024000FF920F931F93CF93DF936C017B018B0180
:10025000040F151FEB015E01AE18BF08C017D107D0
:1002600059F06991D601ED91FC910190F081E02D5A
:10027000C6011995892B79F7C501DF91CF911F919F
:100280000F91FF90EF90DF90CF90BF90AF900895C7
:10029000FC01538D448D252F30E0842F90E0821B8C
:1002A000930B541710F0CF96089501970895FC0111
:1002B000918D828D981761F0A28DAE0FBF2FB11D69
:1002C0005D968C91928D9F5F9F73928F90E00895C1
:1002D0008FEF9FEF0895FC01918D828D981731F07B
:1002E000828DE80FF11D858D90E008958FEF9FEFCF
:1002F0000895FC01918D228D892F90E0805C9F4FA5
:10030000821B91098F73992708958CED93E0F1DF9B
:1003100021E0892B09F420E0822F0895FC01A48DAF
:10032000A80FB92FB11DA35ABF4F2C91848D90E017
:1003300001968F739927848FA689B7892C93A089FA
:10034000B1898C91837080648C93938D848D981384
:1003500006C00288F389E02D80818F7D8083089517
:10036000EF92FF920F931F93CF93DF93EC0181E005
:10037000888F9B8D8C8D98131AC0E889F9898081AC
:1003800085FF15C09FB7F894EE89FF896083E889DF
:10039000F98980818370806480839FBF81E090E0D1
:1003A000DF91CF911F910F91FF90EF900895F62E5E
:1003B0000B8D10E00F5F1F4F0F731127E02E8C8DF8
:1003C0008E110BC00FB607FCFACFE889F98980813E
:1003D00085FFF5CFCE01A2DFF2CFEB8DEC0FFD2F25
:1003E000F11DE35AFF4FF0829FB7F8940B8FEA8913
:1003F000FB8980818062D0CFCF93DF93EC01888D21
:100400008823B1F0AA89BB89E889F9898C9185FD97
:1004100003C0808186FD0CC00FB607FCF7CF8C911E
:1004200085FFF2CF808185FFEDCFCE0177DFEACF68
:10043000DF91CF91089580E090E0892B21F065DF76
:1004400081110E94000080E090E0892B49F080E05B
:1004500090E0892B29F00E94000081110E94000089
:1004600080E090E0892B49F080E090E0892B29F032
:100470000E94000081110E94000080E090E0892B22
:1004800049F080E090E0892B29F00E940000811162
:100490000C9400000895282F30E0F901E657FE4F34
:1004A0009491F901EC5BFE4F449122503F4FF901CA
:1004B0002491222309F435C0992311F191509231EE
:1004C000F8F4E92FF0E08827E759FD4F8F4F0C949F
:1004D00020119A029E027B02920296028002A102E1
:1004E000A702AB02B102B502B902BF02C302800289
:1004F000C702CD02D102809180008F778093800067
:10050000E22FF0E0EE0FFF1FEC51FF4FA591B491E9
:100510008FB7F894EC91611148C040954E234C93ED
:100520008FBF0895809180008F7DE8CF80918000FB
:10053000877FE4CF84B58F7784BDE2CF84B58F7D8C
:10054000FBCF8091B0008F778093B000D9CF80919E
:10055000B0008F7DF9CF809190008F7780939000CD
:10056000CFCF809190008F7DF9CF80919000877FD1
:10057000F5CF8091A0008F778093A000C1CF8091AC
:10058000A0008F7DF9CF8091A000877FF5CF80916B
:1005900020018F7780932001B3CF809120018F7D40
:1005A000F9CF80912001877FF5CF4E2BB8CF3FB791
:1005B000F8948091D0039091D103A091D203B0918F
:1005C000D30326B5A89B05C02F3F19F00196A11DA6
:1005D000B11D3FBFBA2FA92F982F8827BC01CD018D
:1005E000620F711D811D911D42E0660F771F881FEC
:1005F000991F4A95D1F708951F93CF93DF93C1E0D8
:10060000C0936003882379F1D091B8001091BA00AB
:100610008091BC008A7B8093BC0060E084E13BDF7A
:1006200060E085E138DF1092A503C093A703109224
:10063000A60361E084E12FDF61E085E12CDF80919A
:10064000B9008E7F8093B9008091B9008D7F80932F
:10065000B90088E48093B80085E48093BC001093CF
:10066000BA00D093B800DF91CF911F9108952091E7
:100670008103260F3327331F21323105ECF42091FB
:10068000A503FC0190E080E0243069F082E0089549
:10069000A09181032191AC014F595C4FA40FB52F5C
:1006A000B11D2C930196861798F380918103680FF2
:1006B0006093810380E0089581E0089508958FEFAD
:1006C0009FEF08958FEF9FEF089580915A0390E078
:1006D0009195819591090895CF92DF92EF92FF92C3
:1006E0000F931F93CF93DF937C01CB018A0120915D
:1006F0005903222389F0EB016B01C40ED51ECC15E2
:10070000DD0561F06991D701ED91FC910190F081D7
:10071000E02DC7011995F3CF642FA9DFC801DF9140
:10072000CF911F910F91FF90EF90DF90CF900895A0
:10073000CF93DF931F92CDB7DEB769832091590322
:100740002223F9F020915803203258F021E030E0C4
:10075000FC013383228390E080E00F90DF91CF9102
:10076000089580915703E82FF0E0E95CFC4F9981F0
:1007700090838F5F809357038093580381E090E0CC
:10078000ECCF61E0CE01019672DFF8CFCF92DF921D
:10079000EF92FF920F931F93CF93DF93FC01C481DD
:1007A00021E020935903C09336031092570310920F
:1007B00058038385682B89E794E0BADFD09158030A
:1007C000D13208F08CC0F3DE6B017C018091A5036F
:1007D000811162C082E08093A50381E08093A7032A
:1007E0008FEF8093A4031092C903D093C803A7E3AB
:1007F000B3E0E8EAF3E080E0D81380C01092CA03C7
:100800008091CA03CC0FC82BC093CA038091A60362
:10081000813009F077C01092A603C9DE6B017C011C
:100820008091CA038093BB0080915C0390915D032B
:10083000A0915E03B0915F03892B8A2B8B2B91F0E3
:10084000B6DE00915C0310915D0320915E03309150
:100850005F036C197D098E099F0906171707280782
:100860003907D0F18091BC0083FDDACF85EC80930D
:10087000BC009DDE6B017C018091A503823009F4F0
:1008800043C08091A4038F3F51F18091A403803233
:1008900031F18091A40323C080915C0390915D03AA
:1008A000A0915E03B0915F03892B8A2B8B2B09F4F7
:1008B0008DCF7DDE00915C0310915D0320915E037E
:1008C00030915F036C197D098E099F090617170780
:1008D0002807390708F07ACF80915B038DDE1092EC
:1008E00057031092580310925903DF91CF911F9133
:1008F0000F91FF90EF90DF90CF9008959D9191938D
:100900008F5F7ACF85EEB3CF80915C0390915D03CA
:10091000A0915E03B0915F03892B8A2B8B2B09F486
:10092000ABCF45DE00915C0310915D0320915E0327
:1009300030915F036C197D098E099F09061717070F
:100940002807390708F098CFC7CF089590E080E0D6
:100950000895FC01738362836830710579F154F462
:100960006115710519F061307105F9F08091910000
:100970008B7F35C06115F1E07F0771F1611584E06F
:10098000780799F16034710589F7809191008B7F28
:10099000809391008091910082608093910080917A
:1009A00091008160809391000895809191008B7FE8
:1009B00080939100809191008D7FEFCF8091910085
:1009C0008B7F809391008091910082608093910051
:1009D000809191008E7FE6CF80919100846080931A
:1009E0009100809191008D7FF1CF80919100846082
:1009F000DFCFFC0101900020E9F73197AF01481BE0
:100A0000590BBC018CED93E016CC8F929F92AF9264
:100A1000BF920F931F93CF93DF93CDB7DEB7A1970C
:100A20000FB6F894DEBF0FBECDBF19A2423008F456
:100A30004AE08E010F5D1F4F842E912CB12CA12C0A
:100A4000A50194010E948C0EE62FB901CA01EA307B
:100A5000ECF4E05DD801EE938D01232B242B252BA4
:100A600079F790E080E0109711F0CD01C2DFA196F8
:100A70000FB6F894DEBF0FBECDBFDF91CF911F91AF
:100A80000F91BF90AF909F908F900895E95CE2CF57
:100A9000CF92DF92EF92FF92CF93DF936B017C01B5
:100AA0006DE28CED93E05CDCEC0166277727CB01EF
:100AB0006C197D098E099F094AE0A7DF8C0F9D1FE5
:100AC000DF91CF91FF90EF90DF90CF900895CF937B
:100AD000DF938FDFEC0180E392E08BDF8C0F9D1FB3
:100AE000DF91CF910895CF93DF9397FF0AC0D0DFB6
:100AF000EC0180E392E07DDF8C0F9D1FDF91CF91B1
:100B000008954AE082DFF4CFCF93DF93BC01990FC1
:100B1000880B990B97FF0AC0BBDFEC0180E392E0E2
:100B200068DF8C0F9D1FDF91CF9108954AE06DDF44
:100B3000F4CF4F925F926F927F928F929F92AF927B
:100B4000BF92CF92DF92EF92FF920F931F93CF93BA
:100B50006B017C01742EAC019B010E941C11882347
:100B600091F083E392E0CF911F910F91FF90EF906E
:100B7000DF90CF90BF90AF909F908F907F906F90BD
:100B80005F904F9036CF46015701E894B7F82FEFAA
:100B90003FEF4FE75FE7C501B4010E941C118111CF
:100BA0000DC02FEF3FEF4FE75FE7C501B4010E9493
:100BB000130F18161CF487E392E0D5CF2FEF3FEF09
:100BC0004FE75FE4C701B6010E94B51018161CF488
:100BD0008BE392E0C8CF2FEF3FEF4FE75FECC70109
:100BE000B6010E94130F87FDF3CF20E030E0A9018A
:100BF000C701B6010E94130F10E000E087FF09C093
:100C00006DE28CED93E0ACDB8C01F7FAF094F7F831
:100C1000F094C0E060E070E080E09FE37C1641F07B
:100C200020E030E040E251E40E94170FCF5FF6CFA2
:100C3000A70196010E94AF0E2B013C010E94840F78
:100C40004B015C014AE0E1DE7C01E00EF11ECC23A9
:100C5000B1F1C501B4010E94B00F9B01AC01C30109
:100C6000B2010E94AE0E4B015C016EE28CED93E08E
:100C700077DBE80EF91EC15010F120E030E040E2D1
:100C800051E4C501B4010E94B9102B013C010E943E
:100C9000840F4B01B12CA12C4AE0C501B401B5DE93
:100CA000E80EF91EC501B4010E94B00F9B01AC0112
:100CB000C301B2010E94AE0E4B015C01DCCFC70143
:100CC000CF911F910F91FF90EF90DF90CF90BF9049
:100CD000AF909F908F907F906F905F904F9008950E
:100CE000CF93DF9326DFEC0180E392E082DE8C0F6E
:100CF0009D1FDF91CF9108950F931F93CF938C0188
:100D0000C62F646043DD6C2F6B7FC8013FDD83EC31
:100D100090E00197F1F7CF911F910F9108950F93F4
:100D20001F93CF93DF938C01C62FD62FD07FD16036
:100D30006D2F2CDD6D2FC801DFDF80E1C89FE00142
:100D40001124C1606C2FC80121DD6C2FC801D4DFD4
:100D500081E090E0DF91CF911F910F91089585ED93
:100D60008093BC0080915C0390915D03A0915E0331
:100D7000B0915F030796A11DB11D23E0B695A7951D
:100D8000979587952A95D1F72091BC0024FD03C043
:100D90001092A503089540915C0350915D0360910A
:100DA0005E0370915F03452B462B472B69F3009739
:100DB000A105B10541F025E32A95F1F7000001975F
:100DC000A109B109E1CF80915B0316CC4F925F92EC
:100DD0006F927F928F929F92AF92BF92CF92DF924B
:100DE000EF92FF920F931F93CF93DF9300D000D029
:100DF00000D01F92CDB7DEB769837A838B839C8343
:100E000049015A01ED82FE820F83188780919C046C
:100E1000811104C080919004882319F1C8DB6B0113
:100E20007C0195E0492E512C612C712CC0DB6C1992
:100E30007D098E099F09683E734081059105B0F3D5
:100E400021E0421A51086108710888EEC80E83E05B
:100E5000D81EE11CF11C411451046104710431F7E6
:100E6000D5CF1092260310922703109228031092D8
:100E700029032091D8033091D9034091DA0350918E
:100E8000DB0369817A818B819C8168D76B017C014E
:100E900020E030E0A9010E94B510181624F0F7FAFE
:100EA000F094F7F8F094C0921E03D0921F03E092E2
:100EB0002003F09221032091D4033091D503409177
:100EC000D6035091D703C501B40148D72B013C018B
:100ED00020E030E0A9010E94B510181624F077FA3E
:100EE000709477F87094409222035092230360929A
:100EF000240370922503A3019201C701B6012FD7E5
:100F000020E030E0A9018FD7811119C08FE392E072
:100F10002A960FB6F894DEBF0FBECDBFDF91CF91FA
:100F20001F910F91FF90EF90DF90CF90BF90AF9007
:100F30009F908F907F906F905F904F90C8CD82E58B
:100F400092E057DD42E069817A818B819C81F1DDFD
:100F50008FE592E04EDD42E050E0C501B401C0DE15
:100F600080919C0490E0D0DD80919C048111FFCFA2
:100F700089819A81AB81BC81809332039093330342
:100F8000A0933403B093350380922E0390922F03E5
:100F9000A0923003B0923103C090D803D090D9030F
:100FA000E090DA03F090DB0391E09A8729813A819F
:100FB0004B815C81C701B60136D718160CF41A862E
:100FC0004090D4035090D5036090D6037090D7031F
:100FD000A1E0A987A5019401C301B20124D7181685
:100FE0000CF41986BA85BB2341F02985222329F008
:100FF00081E080931D0380931C0311E029813A81D5
:101000004B815C81C701B6010E94B51018160CF027
:1010100010E08985882339F0112329F010921D03EF
:1010200081E080931C0391E09983A5019401C301A1
:10103000B2010E94B51018160CF01982112339F074
:10104000A981AA2321F010921D0310921C03BA85D6
:10105000BB2341F02981222329F081E080931D03E5
:1010600010921C0360911D038091930414DA609127
:101070001C03809187040FDA81E692E028DD20913D
:10108000D8033091D9034091DA035091DB0360918A
:1010900032037091330380913403909135035ED60F
:1010A0006B017C016091990470919A04072E000CE9
:1010B000880B990B57D79B01AC01C701B601B7D676
:1010C0006B017C016091970470919804072E000CCD
:1010D000880B990B47D79B01AC01C701B6010E9451
:1010E000B9107BD76B017C0120E030E0A9010E94A0
:1010F000B51018160CF0C0C0C701B60100D74B01DF
:101100005C012091D4033091D5034091D6035091D6
:10111000D70360912E0370912F038091300390913B
:1011200031031CD66B017C0160918D0470918E049B
:10113000072E000C880B990B15D79B01AC01C7013A
:10114000B60175D66B017C0160918B0470918C04A3
:10115000072E000C880B990B05D79B01AC01C7012A
:10116000B6010E94B91039D76B017C0120E030E054
:10117000A901FBD718160CF083C0C701B601BFD672
:101180006B017C018FE692E034DC60913203709158
:101190003303809134039091350342E050E0A0DDA9
:1011A00088E792E026DC60912E0370912F038091F6
:1011B00030039091310342E050E092DD81E892E00B
:1011C00018DCC501B4018FDC8FE892E012DCC701A6
:1011D000B60189DC8C0C9D1CAE1CBF1CC501B40182
:1011E000C1D69B01AC016D817E818F8198851FD610
:1011F0006B017C014AE050E073DD20E034E244E71B
:101200005BE4C701B601B5D720E030E040E05EE323
:10121000B0D7E3D674D62B016B018DE992E0E9DB00
:10122000C20172DC720157FE03C083E0E80EF11CBC
:10123000F594E794F594E79485EA92E0DADBC70148
:1012400063DC80922A0390922B03A0922C03B0922D
:101250002D038DEA92E0CDDB60912A0370912B0380
:1012600080912C0390912D033EDC92E0C916D104AD
:101270005CF484EB92E04CCEC701B60190583ECFAF
:10128000C701B60190587BCFF89450929E044092CB
:101290009D0450929700409296007894F894F092B2
:1012A000A204E092A104E114F104A9F58FEF9FEFED
:1012B0009093990080939800789468E070E08DE9AD
:1012C00094E047DB10929500109294008091710099
:1012D00082608093710080917100816080937100C1
:1012E00081E080939C0478942A960FB6F894DEBF30
:1012F0000FBECDBFDF91CF911F910F91FF90EF9067
:10130000DF90CF90BF90AF909F908F907F906F9025
:101310005F904F900895F0929900E0929800CCCFA2
:101320001F920F920FB60F9211240BB60F922F93AC
:101330003F934F935F936F937F938F939F93AF935D
:10134000BF93EF93FF938CED93E00E948E01FF918A
:10135000EF91BF91AF919F918F917F916F915F912D
:101360004F913F912F910F900BBE0F900FBE0F909A
:101370001F9018951F920F920FB60F9211240BB663
:101380000F922F938F939F93EF93FF93E091EC0332
:10139000F091ED038081E091F203F091F30382FD7F
:1013A0001DC090818091F5038F5F8F732091F603AC
:1013B000821741F0E091F503F0E0E452FC4F958F85
:1013C0008093F503FF91EF919F918F912F910F9053
:1013D0000BBE0F900FBE0F901F9018958081F2CF1B
:1013E0001F920F920FB60F9211242F933F938F935A
:1013F0009F93AF93BF938091CC039091CD03A09125
:10140000CE03B091CF033091CB0323E0230F2D37D0
:1014100058F50196A11DB11D2093CB038093CC03F9
:101420009093CD03A093CE03B093CF038091D003CC
:101430009091D103A091D203B091D3030196A11D45
:10144000B11D8093D0039093D103A093D203B093A6
:10145000D303BF91AF919F918F913F912F910F90A7
:101460000FBE0F901F90189526E8230F0296A11D1E
:10147000B11DD2CF1F920F920FB60F9211240BB64F
:101480000F922F933F934F935F936F937F938F931D
:101490009F93AF93BF93EF93FF938091B900887FA1
:1014A000803609F44CC008F03FC0883209F4A6C069
:1014B00028F5803109F49AC0C8F4882309F4F6C0ED
:1014C000883009F493C0FF91EF91BF91AF919F9144
:1014D0008F917F916F915F914F913F912F910F90DD
:1014E0000BBE0F900FBE0F901F901895883109F416
:1014F00085C0803241F78093A40314C0803409F47E
:101500009AC040F48033B9F38833E9F68093A4039A
:1015100085ECADC0803509F482C0883509F493C0EC
:10152000883489F61CDCCFCF883909F48AC038F5B5
:10153000883729F050F4883611F0803721F683E09F
:101540008093A5031092A30355C0883809F479C08D
:10155000803919F0803809F0B6CF8091A30380322A
:1015600008F06FC0E091A30381E08E0F8093A30386
:101570008091BB00F0E0ED57FC4F80833BC0803B87
:1015800039F0D0F4803A09F477C0883A09F09BCF5B
:1015900084E08093A5031092820310928103F0E00F
:1015A000E0E019958091810381110FC081E0809363
:1015B00081031092610309C0803C09F4A9CF883CE3
:1015C00009F4A6CF883B09F07ECFE091820381E049
:1015D0008E0F80938203F0E0EF59FC4F808180935F
:1015E000BB00909182038091810329C08091CA033E
:1015F0008093BB0085EC8093BC0065CF9091C903BC
:101600008091C803981758F5E091C90381E08E0FC7
:101610008093C903F0E0E855FC4F8081E9CFE09169
:10162000C90381E08E0F8093C9038091BB00F0E075
:10163000E855FC4F80839091C9038091C8039817A7
:10164000C8F285E8D8CFE091C90381E08E0F80937E
:10165000C9038091BB00F0E0E855FC4F8083809186
:10166000A70381115FCF81E08093A60384EA809372
:10167000BC001092A50327CF85EC8093BC0010928C
:10168000A5038091A303803230F4E091A303F0E03E
:10169000ED57FC4F10826091A30370E083E893E064
:1016A000F0E0E0E019951092A3030DCF1092A4038F
:1016B00039CF1F920F920FB60F9211240F900FBEC9
:1016C0000F901F9018951F920F920FB60F92112432
:1016D0000BB60F92EF92FF920F931F932F933F93AE
:1016E0004F935F936F937F938F939F93AF93BF932A
:1016F000EF93FF93F89487EF92E0E9D91092D80323
:101700001092D9031092DA031092DB031092D403E3
:101710001092D5031092D6031092D7031092320381
:1017200010923303109234031092350310922E035B
:1017300010922F0310923003109231037894E12C11
:10174000F12C00E410E420E030E0A90160E070E05A
:1017500080E291E43BDBFF91EF91BF91AF919F91CC
:101760008F917F916F915F914F913F912F911F9139
:101770000F91FF90EF900F900BBE0F900FBE0F9048
:101780001F9018951F920F920FB60F9211248F93EE
:101790009F93AF93BF932F982D9880912A03909198
:1017A0002B03A0912C03B0912D030197A109B1093E
:1017B00080932A0390932B03A0932C03B0932D03C3
:1017C000892B8A2B8B2BB1F58091320390913303B7
:1017D000A0913403B09135038093D8039093D9033B
:1017E000A093DA03B093DB0380912E0390912F0333
:1017F000A0913003B09131038093D4039093D5032B
:10180000A093D603B093D703809171008B7F809310
:10181000710080917100877F8093710080917100C9
:101820008D7F80937100809171008E7F8093710015
:1018300010929C04BF91AF919F918F910F900FBE1A
:101840000F901F9018951F920F920FB60F921124B0
:101850000BB60F928F929F92AF92BF92CF92DF9270
:10186000EF92FF922F933F934F935F936F937F93EA
:101870008F939F93AF93BF93EF93FF9380912A032E
:1018800090912B03A0912C03B0912D03892B8A2BCF
:101890008B2B91F1C090D803D090D903E090DA035C
:1018A000F090DB038090320390903303A0903403D8
:1018B000B090350320912E0330912F0340913003D7
:1018C000509131036091D4037091D5038091D60378
:1018D0009091D703A8D2882339F0A5019401C701BC
:1018E000B601A1D2811125C0A5019401C701B6019D
:1018F0009AD281111CC02D9AFF91EF91BF91AF91A7
:101900009F918F917F916F915F914F913F912F9117
:10191000FF90EF90DF90CF90BF90AF909F908F900F
:101920000F900BBE0F900FBE0F901F9018952F9A1F
:10193000E3CF20E030E0A9016091260370912703F6
:10194000809128039091290310D487FD1BC02F9A02
:1019500020912203309123034091240350912503C9
:1019600060912603709127038091280390912903A9
:10197000F5D16093260370932703809328039093F7
:101980002903BACF2D9A20911E0330911F03409155
:1019900020035091210360912603709127038091C9
:1019A000280390912903DBD1E4CFECEDF3E013821F
:1019B000128288EE93E0A0E0B0E084839583A68352
:1019C000B78324E032E03183208325EC30E0358793
:1019D000248724EC30E03787268720EC30E0318BF9
:1019E000208B21EC30E0338B228B22EC30E0358BE6
:1019F000248B26EC30E0378B268B118E128E138EC3
:101A0000148EE9E7F4E01382128284839583A6831F
:101A1000B78386E192E091838083E5EAF4E0138264
:101A2000128288E292E09183808387E2848380E15E
:101A3000818782E082871386E1E9F4E012861386CB
:101A400089E090E0918380838CE090E093838283AF
:101A50008DE090E09583848380E991E0978386838D
:101A600024E030E031872087E5E8F4E01286138631
:101A700028E030E0318320832AE030E03383228382
:101A80002BE030E0358324839783868381E090E0E8
:101A9000918780870895CF93DF9300D000D01F9265
:101AA0001F92CDB7DEB7789484B5826084BD84B5CB
:101AB000816084BD85B5826085BD85B5816085BD49
:101AC00080916E00816080936E0010928100809101
:101AD0008100826080938100809181008160809389
:101AE0008100809180008160809380008091B100AE
:101AF00084608093B1008091B00081608093B000D9
:101B0000809191008260809391008091910081602A
:101B100080939100809190008160809390008091EB
:101B2000A10082608093A1008091A10081608093D8
:101B3000A1008091A00081608093A000809121018C
:101B40008260809321018091210181608093210135
:101B50008091200181608093200180917A008460CF
:101B600080937A0080917A00826080937A008091DD
:101B70007A00816080937A0080917A0080688093F7
:101B80007A001092C10010929000109291008EE0A5
:101B900090E098878F831C821B821A8219821E8292
:101BA0001D82F894809191008F77809391008091AD
:101BB00091008F7B80939100809191008061809350
:101BC00091008091910088608093910080919000B5
:101BD000826080939000809190008E7F809390002F
:101BE00078946B817C81CE0101960E94A904898141
:101BF0009A81F8949A838983009711F48FEF9FEF6D
:101C0000909397008093960078948D819E81F894AC
:101C10009E838D83009711F48FEF9FEF909399002F
:101C20008093980078941092D8031092D903109260
:101C3000DA031092DB031092D4031092D5031092B2
:101C4000D6031092D70384B1806F84B985B18F70A9
:101C500085B9809101018066809301018091020124
:101C60008F7B8093020180B38C7F80BB8DB18063BA
:101C70008DB980916A008A6080936A0080916A00C1
:101C8000856080936A008DB380638DBBE091EC0327
:101C9000F091ED0382E08083E091E803F091E903A5
:101CA0001082E091EA03F091EB0380E180831092CF
:101CB000F403E091F003F091F10386E08083E0917A
:101CC000EE03F091EF03808180618083E091EE0369
:101CD000F091EF03808188608083E091EE03F091C2
:101CE000EF03808180688083E091EE03F091EF0341
:101CF00080818F7D808386EC92E00E946705E12CD5
:101D0000F12C0AEF13E420E030E0A90160E070EC70
:101D100089E794EC5BD8F3CFA1E21A2EAA1BBB1B78
:101D2000FD010DC0AA1FBB1FEE1FFF1FA217B307A7
:101D3000E407F50720F0A21BB30BE40BF50B661FBD
:101D4000771F881F991F1A9469F760957095809581
:101D500090959B01AC01BD01CF0108955058BB2760
:101D6000AA270ED0B1C1A2D130F0A7D120F031F412
:101D70009F3F11F41EF497C10EF4E095E7FB64C198
:101D8000E92FB3D180F3BA17620773078407950769
:101D900018F071F49EF5E2C10EF4E0950B2EBA2F07
:101DA000A02D0B01B90190010C01CA01A001112461
:101DB000FF27591B99F0593F50F4503E68F11A160D
:101DC000F040A22F232F342F4427585FF3CF46959E
:101DD00037952795A795F0405395C9F77EF41F16C0
:101DE000BA0B620B730B840BBAF09150A1F0FF0F8A
:101DF000BB1F661F771F881FC2F70EC0BA0F621F76
:101E0000731F841F48F4879577956795B795F79565
:101E10009E3F08F0B3CF9395880F08F09927EE0FF7
:101E2000979587950895ECD008F481E008950CD03B
:101E30004BC143D140F03AD130F021F45F3F19F06B
:101E400003C151118CC12FC150D198F39923C9F30B
:101E50005523B1F3951B550BBB27AA2762177307B0
:101E6000840738F09F5F5F4F220F331F441FAA1F64
:101E7000A9F333D00E2E3AF0E0E830D09150504024
:101E8000E695001CCAF729D0FE2F27D0660F771FD2
:101E9000881FBB1F261737074807AB07B0E809F0B4
:101EA000BB0B802DBF01FF2793585F4F2AF09E3F49
:101EB000510568F0C9C053C15F3FECF3983EDCF3B5
:101EC000869577956795B795F7959F5FC9F7880FC2
:101ED000911D9695879597F90895E1E0660F771F14
:101EE000881FBB1F621773078407BA0720F0621BA5
:101EF000730B840BBA0BEE1F88F7E095089504D09E
:101F00006894B1112CC10895F8D088F09F5790F0D3
:101F1000B92F9927B751A0F0D1F0660F771F881F0E
:101F2000991F1AF0BA95C9F712C0B13081F016D1D5
:101F3000B1E0089513C1672F782F8827B85F39F073
:101F4000B93FCCF3869577956795B395D9F73EF46D
:101F500090958095709561957F4F8F4F9F4F089515
:101F6000E89409C097FB3EF4909580957095619533
:101F70007F4F8F4F9F4F9923A9F0F92F96E9BB27E9
:101F80009395F695879577956795B795F111F8CF65
:101F9000FAF4BB0F11F460FF1BC06F5F7F4F8F4FD0
:101FA0009F4F16C0882311F096E911C0772321F0C6
:101FB0009EE8872F762F05C0662371F096E8862F5E
:101FC00070E060E02AF09A95660F771F881FDAF7B5
:101FD000880F9695879597F90895A9D080F09F3737
:101FE00040F491110EF0BBC060E070E080E89FEB20
:101FF000089526F41B16611D711D811D2BC045C05F
:10200000990F0008550FAA0BE0E8FEEF1616170609
:10201000E807F907C0F012161306E407F50798F071
:10202000621B730B840B950B39F40A2661F0232B8A
:10203000242B252B21F408950A2609F4A140A69506
:102040008FEF811D811D089597F99F6780E870E0EB
:1020500060E00895882371F4772321F09850872B4E
:10206000762F07C0662311F499270DC09051862B57
:1020700070E060E02AF09A95660F771F881FDAF704
:10208000880F9695879597F908959F3F31F0915065
:1020900020F4879577956795B795880F911D96954C
:1020A000879597F908959FEF80EC089500240A948E
:1020B0001616170618060906089500240A94121623
:1020C0001306140605060895092E0394000C11F456
:1020D000882352F0BB0F40F4BF2B11F460FF04C003
:1020E0006F5F7F4F8F4F9F4F089557FD9058440F5C
:1020F000551F59F05F3F71F04795880F97FB991F67
:1021000061F09F3F79F08795089512161306140623
:10211000551FF2CF4695F1DF08C0161617061806B0
:10212000991FF1CF86957105610508940895E5DF43
:10213000A0F0BEE7B91788F4BB279F3860F41616E5
:10214000B11D672F782F8827985FF7CF86957795F1
:102150006795B11D93959639C8F30895E894BB2708
:1021600066277727CB0197F908954ADF08F48FEFA8
:1021700008950BD0A9CF9ADF28F09FDF18F09523A0
:1021800009F062CF90CF1124EACFAFDFA0F3959F83
:10219000D1F3950F50E0551F629FF001729FBB274E
:1021A000F00DB11D639FAA27F00DB11DAA1F649FFA
:1021B0006627B00DA11D661F829F2227B00DA11DAD
:1021C000621F739FB00DA11D621F839FA00D611D33
:1021D000221F749F3327A00D611D231F849F600D54
:1021E000211D822F762F6A2F11249F5750408AF08D
:1021F000E1F088234AF0EE0FFF1FBB1F661F771F19
:10220000881F91505040A9F79E3F510570F01CCF98
:10221000A6CF5F3FECF3983EDCF386957795679504
:10222000B795F795E7959F5FC1F7FE2B880F911D36
:102230009695879597F90895E3DE880B990B089595
:10224000EE0FFF1F881F8BBF0790F691E02D1994AA
:04225000F894FFCF30
:1022540000000000B0011B014801FC017901570195
:102264006B010000000098036C03A6045E03650381
:1022740062035F03000000008F061B01A604A5048F
:102284000D0A006E616E00696E66006F7666006E00
:102294006F206D6F76656D656E74206E656564651F
:1022A4006400747279206D6F76696E6720746F2094
:1022B40000446972656374696F6E205345540074F9
:1022C4006172676574583D00746172676574593D45
:1022D4000070756C73656E6565646564583D007067
:1022E400756C73656E6565646564593D006E6577EC
:1022F400746F703D006E65774F43523D007369679C
:102304006D613D00544F504F5645522F554E444534
:1023140052464C4F570046696E64696E67205A6591
:10232400726F20706F696E74206F66205820617818
:1023340069732C20706C65617365207374616E64BD
:102344002062792E2E2E0058206C696D69742074D9
:1023540072696767657265642C205820706F7369B1
:0C23640074696F6E2072657365742E0042
:020000023000CC
:10E000000D9489F10D94B2F10D94B2F10D94B2F129
:10E010000D94B2F10D94B2F10D94B2F10D94B2F1F0
:10E020000D94B2F10D94B2F10D94B2F10D94B2F1E0
:10E030000D94B2F10D94B2F10D94B2F10D94B2F1D0
:10E040000D94B2F10D94B2F10D94B2F10D94B2F1C0
:10E050000D94B2F10D94B2F10D94B2F10D94B2F1B0
:10E060000D94B2F10D94B2F10D94B2F10D94B2F1A0
:10E070000D94B2F10D94B2F10D94B2F10D94B2F190
:10E080000D94B2F10D94B2F10D94B2F10D94B2F180
:10E090000D94B2F10D94B2F10D94B2F10D94B2F170
:10E0A0000D94B2F10D94B2F10D94B2F10D94B2F160
:10E0B0000D94B2F10D94B2F10D94B2F10D94B2F150
:10E0C0000D94B2F10D94B2F10D94B2F10D94B2F140
:10E0D0000D94B2F10D94B2F10D94B2F10D94B2F130
:10E0E0000D94B2F141546D656761323536300041AF
:10E0F000726475696E6F206578706C6F72657220DE
:10E1000073746B3530305632206279204D4C530099
:10E11000426F6F746C6F616465723E004875683F52
:10E1200000436F6D70696C6564206F6E203D200048
:10E130004350552054797065202020203D20005FF9
:10E140005F4156525F415243485F5F3D2000415658
:10E1500052204C696243205665723D20004743437C
:10E160002056657273696F6E203D20004350552024
:10E1700049442020202020203D20004C6F7720663D
:10E18000757365202020203D20004869676820665F
:10E190007573652020203D200045787420667573D6
:10E1A00065202020203D20004C6F636B2066757336
:10E1B000652020203D20004D617220203720323024
:10E1C000313300312E362E3800342E332E350056A2
:10E1D00023202020414444522020206F7020636F70
:10E1E00064652020202020696E73747275637469E1
:10E1F0006F6E2061646472202020496E74657272B3
:10E20000757074006E6F20766563746F7200726A49
:10E210006D702020006A6D70200057686174207056
:10E220006F72743A00506F7274206E6F7420737541
:10E2300070706F72746564004D7573742062652030
:10E2400061206C6574746572002000577269747483
:10E25000696E672045450052656164696E672045B7
:10E26000450045452065727220636E743D00504F35
:10E27000525400303D5A65726F2061646472003FF1
:10E280003D43505520737461747300403D454550C3
:10E29000524F4D207465737400423D426C696E6B41
:10E2A000204C454400453D44756D70204545505215
:10E2B0004F4D00463D44756D7020464C415348001B
:10E2C000483D48656C70004C3D4C69737420492F83
:10E2D0004F20506F72747300513D51756974005234
:10E2E0003D44756D702052414D00563D73686F7707
:10E2F00020696E7465727275707420566563746FF0
:10E30000727300593D506F727420626C696E6B00BD
:10E310002A0011241FBECFEFD1E2DEBFCDBF01E046
:10E320000CBF12E0A0E0B2E0EEE1FDEF03E00BBFB6
:10E3300002C007900D92A030B107D9F712E0A0E01B
:10E34000B2E001C01D92AE30B107E1F70F9460F367
:10E350000D948DFE01E20EBF0FEF0DBF11241FBE05
:10E360000D9460F30D9400F020E030E040ED57E0B4
:10E3700005C0FA013197F1F72F5F3F4F2817390792
:10E38000C0F308959C01260F311DC901A0E0B0E043
:10E390002F5F3F4FABBFFC018791882361F08093D3
:10E3A000C6008091C00086FFFCCF8091C0008064D1
:10E3B0008093C000EACF08958DE08093C6008091DD
:10E3C000C00086FFFCCF8091C00080648093C000B5
:10E3D0008AE08093C6008091C00086FFFCCF8091C8
:10E3E000C00080648093C00008950F94C2F10F9420
:10E3F000DCF10895FC019081992359F09093C600B7
:10E400008091C00086FFFCCF8091C0008064809323
:10E41000C0003196992379F70895282F982F929567
:10E420009F70892F805D8A3308F0895F8093C600D2
:10E430008091C00086FFFCCF8091C00080648093F3
:10E44000C000822F8F70982F905D9A3308F0995FEB
:10E450009093C6008091C00086FFFCCF8091C000E1
:10E4600080648093C00008959C01FB01853691056E
:10E470001CF46330710594F0C90164E670E00F94F8
:10E480002EFE605D7F4F6093C6008091C00086FFC6
:10E49000FCCF8091C00080648093C0002B30310598
:10E4A00014F43297B4F0C90164E670E00F942EFEC4
:10E4B0006AE070E00F942EFE605D7F4F6093C600AF
:10E4C0008091C00086FFFCCF8091C0008064809363
:10E4D000C000C9016AE070E00F942EFEC0968093E0
:10E4E000C6008091C00086FFFCCF8091C000806490
:10E4F0008093C00008951F93182F8EE692EE60E07F
:10E500000F94C2F11093C6008091C00086FFFCCF2B
:10E510008091C00080648093C0000F94DCF11F9153
:10E5200008952F923F924F925F926F927F928F92B7
:10E530009F92AF92BF92CF92DF92EF92FF920F9392
:10E540001F93DF93CF93CDB7DEB762970FB6F894E2
:10E55000DEBF0FBECDBF382E622ECA01DB015C01CB
:10E560006D01772420E2222E2E010894411C511CBB
:10E570008BC081E0A81680E0B80681E0C80680E084
:10E58000D80628F0C601AA27BB270F940DF2BB2797
:10E59000AD2D9C2D8B2D0F940DF28A2D0F940DF225
:10E5A0002092C6008091C00086FFFCCF8091C00001
:10E5B00080648093C0009DE29093C6008091C0006B
:10E5C00086FFFCCF8091C00080648093C0002092C1
:10E5D000C6008091C00086FFFCCF8091C00080649F
:10E5E0008093C00019828601750188249924A1E0D6
:10E5F0003A1651F03A1620F0B2E03B1661F409C029
:10E600000BBFF701779007C0C7010F9477FE782EF4
:10E6100002C0F7017080872D0F940DF22092C60082
:10E620008091C00086FFFCCF8091C0008064809301
:10E63000C000872D8052F401EF70F0708F3520F408
:10E64000E40DF51D708204C0E40DF51D8EE280839B
:10E650000894E11CF11C011D111D0894811C911CE2
:10E6600090E18916910409F0C2CF80E190E0A0E02A
:10E67000B0E0A80EB91ECA1EDB1E198AC2010F9493
:10E68000FAF10F94DCF16A94662009F072CF629679
:10E690000FB6F894DEBF0FBECDBFCF91DF911F91B3
:10E6A0000F91FF90EF90DF90CF90BF90AF909F9031
:10E6B0008F907F906F905F904F903F902F90089534
:10E6C0002F923F924F925F926F927F928F929F9282
:10E6D000AF92BF92CF92DF92EF92FF920F931F9370
:10E6E000DF93CF93CDB7DEB7CD53D1400FB6F894BB
:10E6F000DEBF0FBECDBF01E20EBF0FEF0DBF94B75F
:10E70000F894A89514BE80916000886180936000A1
:10E7100010926000789493FF05C0E0910002F091A0
:10E7200001021995279A2F9A8091C00082608093E8
:10E73000C00080E18093C40088E18093C1000000A4
:10E74000EE24FF24870144E0A42EB12CCC24DD2448
:10E7500024C0C5010197F1F70894E11CF11C011DCB
:10E76000111D21E2E2162EE4F20620E0020720E06D
:10E77000120718F031E0C32ED12CC801B70127ECE5
:10E780003BE140E050E00F9441FE611571058105C9
:10E79000910519F485B1805885B98091C00087FD35
:10E7A00003C0C114D104A9F2A6014F5F5F4FC25E3E
:10E7B000DE4F59834883CE51D140C25EDE4F8881FF
:10E7C0009981CE51D140019711F00D9410FEC05D9A
:10E7D000DE4F19821882C053D14060E0C15DDE4F28
:10E7E0001882CF52D14088249924C35DDE4F19820C
:10E7F0001882CD52D140C05EDE4F188219821A8233
:10E800001B82C052D140CE5CDE4F188219821A8220
:10E810001B82C253D140EE24FF2487010BBFF701B6
:10E8200007911691C45CDE4F19830883CC53D14005
:10E830000D940BFEC25EDE4F28813981CE51D1404E
:10E840002130310509F52091C600C25EDE4F1982E4
:10E850001882CE51D14022C02F5F3F4F4F4F5F4FA4
:10E86000213082E138078AE7480780E0580780F0C6
:10E87000C45CDE4FE881F981CC53D140EF5FFF4F9C
:10E8800019F0EE27FF27099420E030E040E050E047
:10E890008091C00087FFE0CF2091C600C35DDE4FAE
:10E8A00048815981CD52D1404F5F5F4FC35DDE4FEC
:10E8B00059834883CD52D140213209F063C64A3092
:10E8C000510508F05FC60894811C911C53E0851621
:10E8D000910409F059C600E010E018C081E280936D
:10E8E000C6008091C00086FFFCCF8091C00080648C
:10E8F0008093C0002F5F3F4F2931310579F70F9486
:10E90000DCF10F5F1F4F0530110519F020E030E0FA
:10E91000E5CF10920A0210920B0210920C02109294
:10E920000D02109206021092070210920802109235
:10E930000902109202021092030210920402109235
:10E9400005028FEE90EE60E00F94F5F180E191EE1C
:10E9500060E00F94C2F18091C00087FFFCCF9091DE
:10E96000C600903608F09F759032B8F09093C600BC
:10E970008091C00086FFFCCF8091C00080648093AE
:10E98000C000A0E2A093C6008091C00086FFFCCF2B
:10E990008091C00080648093C000983409F4D7C18E
:10E9A0009934B8F4923409F459C1933458F490333B
:10E9B00019F1903308F4E3C59F33A1F1903409F0C5
:10E9C000DEC5BDC0953409F470C1963409F0D7C5D1
:10E9D00098C1923509F42BC2933538F49C3409F46C
:10E9E000F5C1913509F0CBC518C2963509F445C279
:10E9F000993509F0C4C567C483E792EE62E00F94CD
:10EA0000F5F110920602109207021092080210927D
:10EA1000090210920A0210920B0210920C0210923C
:10EA20000D0213C18FE792EE62E00F94F5F18FEEC5
:10EA300090EE60E00F94F5F181E291EE60E00F94CA
:10EA4000C2F187EB91EE60E00F94F5F180E391EE77
:10EA500060E00F94C2F184EE90EE60E00F94F5F167
:10EA60008FE391EE60E00F94C2F186E090E061E008
:10EA700070E00F9434F20F94DCF18DE591EE60E0DC
:10EA80000F94C2F189EC91EE60E00F94F5F18EE401
:10EA900091EE60E00F94C2F183EC91EE60E00F9490
:10EAA000F5F18CE691EE60E00F94C2F18EE10F94E7
:10EAB0000DF288E90F940DF281E00F940DF20F949E
:10EAC000DCF18BE791EE60E00F94C2F119E0E0E039
:10EAD000F0E010935700E4918E2F0F940DF20F94F5
:10EAE000DCF18AE891EE60E00F94C2F1E3E0F0E03F
:10EAF00010935700E4918E2F0F940DF20F94DCF1D8
:10EB000089E991EE60E00F94C2F1E2E0F0E0109349
:10EB10005700E4918E2F0F940DF20F94DCF188EAE8
:10EB200091EE60E00F94C2F1E1E0F0E01093570045
:10EB30001491812F0F940DF20F94DCF107CF8BE825
:10EB400092EE62E00F94F5F18BE492EE60E00F94A8
:10EB5000F5F10F94DCF100E010E019C0C8016F2D51
:10EB60000F947FFEFF2031F489E492EE60E00F9471
:10EB7000C2F10BC0F092C6008091C00086FFFCCFAE
:10EB80008091C00080648093C0000F5F1F4FC80158
:10EB900081519F41A0E0B0E0ABBFFC01F790BAE229
:10EBA000FB1621F0E2E000301E07C1F60F94DCF105
:10EBB0000F94DCF187E592EE60E00F94F5F10F948D
:10EBC000DCF1CC24DD2400E010E01EC0C8010F946D
:10EBD00077FEF82E882331F489E492EE60E00F94FA
:10EBE000C2F10BC08093C6008091C00086FFFCCFAD
:10EBF0008091C00080648093C000FE1419F00894D6
:10EC0000C11CD11C0F5F1F4FC80181519F41A0E063
:10EC1000B0E0ABBFFC01E790FAE2EF1621F022E092
:10EC20000030120799F60F94DCF10F94DCF182E6C4
:10EC300092EE60E00F94C2F1C60161E070E00F94C3
:10EC400034F20F94DCF10F94DCF110920202109276
:10EC50000302109204021092050278CE89E992EE26
:10EC600062E00F94F5F1279A2F9A16C02F9880E052
:10EC700090E0E0EDF7E03197F1F7019684369105E9
:10EC8000C1F72F9A80E090E0E0EDF7E03197F1F7DF
:10EC9000019684369105C1F78091C00087FFE6CFC9
:10ECA0008091C00087FFFCCF64C485EA92EE62E0E9
:10ECB0000F94F5F140910202509103026091040219
:10ECC0007091050281E020E10F9491F2809102029F
:10ECD00090910302A0910402B091050280509F4FD1
:10ECE000AF4FBF4F8093020290930302A0930402A0
:10ECF000B093050280509041A040B04008F426CE69
:10ED0000A4CF83EB92EE62E00F94F5F140910602FE
:10ED100050910702609108027091090280E020E1A1
:10ED20000F9491F28091060290910702A09108023F
:10ED3000B091090280509F4FAF4FBF4F80930602A2
:10ED400090930702A0930802B0930902FFCD80ECD4
:10ED500092EE62E00F94F5F183E792EE60E00F949B
:10ED6000F5F18FE792EE60E00F94F5F18BE892EE0B
:10ED700060E00F94F5F189E992EE60E00F94F5F10F
:10ED800085EA92EE60E00F94F5F183EB92EE60E09D
:10ED90000F94F5F180EC92EE60E00F94F5F187ECC2
:10EDA00092EE60E00F94F5F188ED92EE60E00F9442
:10EDB000F5F18FED92EE60E00F94F5F18AEE92EEB0
:10EDC00060E00F94F5F183E093EEBDCD87EC92EE19
:10EDD00062E00F94F5F181E40F947BF282E40F94EA
:10EDE0007BF283E40F947BF284E40F947BF285E45E
:10EDF0000F947BF286E40F947BF287E40F947BF20E
:10EE000088E40F947BF28AE40F947BF28BE40F94F6
:10EE10007BF28CE40F947BF299CD88ED92EE62E068
:10EE20000F94F5F1772473948824992409C48FED05
:10EE300092EE62E00F94F5F140910A0250910B02BC
:10EE400060910C0270910D0282E020E10F9491F22A
:10EE500080910A0290910B02A0910C02B0910D02D8
:10EE600080509F4FAF4FBF4F80930A0290930B0289
:10EE7000A0930C02B0930D0269CD8AEE92EE62E08F
:10EE80000F94F5F184EE90EE60E00F94F5F18FECC5
:10EE900091EE60E00F94F5F1662477244301CC5D98
:10EEA000DE4F19821882C452D140D401C301B695F5
:10EEB000A79597958795CA5DDE4F88839983AA8326
:10EEC000BB83C652D140CC5DDE4FA881B981C4520C
:10EED000D1401196CC5DDE4FB983A883C452D14096
:10EEE000CD0162E070E00F9434F2B0E2B093C6005E
:10EEF0008091C00086FFFCCF8091C0008064809329
:10EF0000C000EDE2E093C6008091C00086FFFCCF18
:10EF10008091C00080648093C000F0E2F093C6004E
:10EF20008091C00086FFFCCF8091C00080648093F8
:10EF3000C000CA5DDE4FE880F9800A811B81C6529D
:10EF4000D140BB27A12F902F8F2D0F940DF2CA5DBA
:10EF5000DE4F8881C652D1400F940DF2B0E2FB2EF5
:10EF6000F092C6008091C00086FFFCCF8091C00067
:10EF700080648093C0000DE30093C6008091C000C0
:10EF800086FFFCCF8091C00080648093C00010E2B7
:10EF90001093C6008091C00086FFFCCF8091C00016
:10EFA00080648093C0008BBEF3012791C65DDE4F65
:10EFB0002883CA52D140A22EBB24CC24DD2408943D
:10EFC000611C711C811C911C8BBEF3018791282E42
:10EFD0003324442455240894611C711C811C911C09
:10EFE0008BBEF3013791C55DDE4F3883CB52D140E4
:10EFF0000894611C711C811C911C8BBEF30147910C
:10F00000C45DDE4F4883CC52D140ADEFEA2EAFEF66
:10F01000FA2EAFEF0A2FAFEF1A2F6E0C7F1C801E57
:10F02000911E142D032DF22CEE24EA0CFB1C0C1D5A
:10F030001D1D0F940DF220E22093C6008091C000A8
:10F0400086FFFCCF8091C00080648093C000C65DC5
:10F05000DE4F8881CA52D1400F940DF230E23093D6
:10F06000C6008091C00086FFFCCF8091C000806404
:10F070008093C000C45DDE4F8881CC52D1400F9494
:10F080000DF240E24093C6008091C00086FFFCCFA5
:10F090008091C00080648093C000C55DDE4F888190
:10F0A000CB52D1400F940DF250E25093C6008091A4
:10F0B000C00086FFFCCF8091C00080648093C000B8
:10F0C0008FEFE8168FEFF80680E0080780E018075A
:10F0D00031F484E092EE60E00F94C2F1DFC0D80119
:10F0E000C7018070907CA070B0708050904CA040A0
:10F0F000B040D1F52FEF3FE340E050E0E222F322B1
:10F1000004231523CA5DDE4FA880B980CA80DB8046
:10F11000C652D140AE0CBF1CC01ED11EAA0CBB1CD7
:10F12000CC1CDD1C8EE092EE60E00F94C2F1BB2798
:10F13000A12F902F8F2D0F940DF28E2D0F940DF285
:10F1400030E23093C6008091C00086FFFCCF8091F2
:10F15000C00080648093C0004EE34093C60080915D
:10F16000C00086FFFCCF87C08EE09EEFA0E0B0E03D
:10F17000E822F9220A231B239CE0E91694E9F90608
:10F1800090E0090790E0190709F088C0C45DDE4FE0
:10F19000A881CC52D140EA2EFF2400E010E0102FCD
:10F1A0000F2DFE2CEE24C55DDE4FB881CB52D14031
:10F1B000EB0EF11C011D111DD601C501817090706F
:10F1C000A070B070DC0199278827E80EF91E0A1F8D
:10F1D0001B1F20EF30E040E050E0A222B322C42207
:10F1E000D52241E1AA0CBB1CCC1CDD1C4A95D1F7F1
:10F1F000EA0CFB1C0C1D1D1D81E090E0A0E0B0E0BE
:10F20000282239224A225B2235E1220C331C441C7D
:10F21000551C3A95D1F7E20CF31C041D151D57013E
:10F220006801AA0CBB1CCC1CDD1C85E192EE60E0E1
:10F230000F94C2F1C801AA27BB270F940DF2BB2778
:10F24000A12F902F8F2D0F940DF28E2D0F940DF274
:10F2500090E29093C6008091C00086FFFCCF809121
:10F26000C00080648093C000AEE3A093C60080918C
:10F27000C00086FFFCCF8091C00080648093C000F6
:10F28000C601AA27BB270F940DF2BB27AD2D9C2DDD
:10F290008B2D0F940DF28A2D0F940DF20F94DCF14B
:10F2A000CC5DDE4FE881F981C452D140F99709F471
:10F2B0004DCBF4E0EF2EF12C012D112D6E0C7F1CA7
:10F2C000801E911EF2CD83E093EE62E00F94F5F183
:10F2D0008AE192EE60E00F94C2F18091C00087FF56
:10F2E000FCCF1091C6001F751093C6008091C0001E
:10F2F00086FFFCCF8091C00080648093C0000F9493
:10F30000DCF1812F81548A3108F036C1163409F4BA
:10F3100095C0173490F4133409F44EC0143430F40B
:10F320001134F1F0123409F01DC130C0143409F465
:10F3300059C0153409F016C16BC01A3409F4C4C0A1
:10F340001B3438F4173409F48FC0183409F00AC19B
:10F35000A1C01B3409F4D2C01C3409F003C1E8C0B9
:10F360008FEF81B90DC082B1809582B980E090E0C5
:10F37000E0EDF7E03197F1F70196883C9105C1F790
:10F380008091C00087FFEFCF12B8EFC08FEF84B934
:10F390000DC085B1809585B980E090E0E0EDF7E0A3
:10F3A0003197F1F70196883C9105C1F78091C00033
:10F3B00087FFEFCF15B8D9C08FEF87B90DC088B1DF
:10F3C000809588B980E090E0E0EDF7E03197F1F7C3
:10F3D0000196883C9105C1F78091C00087FFEFCF6F
:10F3E00018B8C3C08FEF8AB90DC08BB180958BB9A7
:10F3F00080E090E0E0EDF7E03197F1F70196883C8E
:10F400009105C1F78091C00087FFEFCF1BB8ADC059
:10F410008FEF8DB90DC08EB180958EB980E090E0F0
:10F42000E0EDF7E03197F1F70196883C9105C1F7DF
:10F430008091C00087FFEFCF1EB897C08FEF80BBD1
:10F440000DC081B3809581BB80E090E0E0EDF7E0F6
:10F450003197F1F70196883C9105C1F78091C00082
:10F4600087FFEFCF11BA81C08FEF83BB0DC084B38C
:10F47000809584BB80E090E0E0EDF7E03197F1F714
:10F480000196883C9105C1F78091C00087FFEFCFBE
:10F4900014BA6BC08FEF809301010FC080910201FD
:10F4A00080958093020180E090E0E0EDF7E03197F5
:10F4B000F1F70196883C9105C1F78091C00087FF64
:10F4C000EDCF1092020151C08FEF809304010FC065
:10F4D0008091050180958093050180E090E0E0ED4A
:10F4E000F7E03197F1F70196883C9105C1F78091DB
:10F4F000C00087FFEDCF1092050137C08FEF8093DA
:10F5000007010FC08091080180958093080180E079
:10F5100090E0E0EDF7E03197F1F70196883C910536
:10F52000C1F78091C00087FFEDCF109208011DC088
:10F530008FEF80930A010FC080910B01809580931B
:10F540000B0180E090E0E0EDF7E03197F1F70196F4
:10F55000883C9105C1F78091C00087FFEDCF1092E4
:10F560000B0103C085E292EEEEC98091C00087FFD7
:10F57000FCCF8091C600EAC988E392EEE4C98CE131
:10F5800091EEE1C988249924933011F1943028F444
:10F59000913089F09230B8F408C0953061F195301F
:10F5A000F0F0963009F048C043C02B3109F042C951
:10F5B00091E06BE13FC96227C15DDE4F2883CF52E6
:10F5C000D14092E037C9B22FA0E0622793E032C960
:10F5D000822F90E0A82BB92B622794E02BC92E3004
:10F5E00009F039C3622795E0C05DDE4F19821882A9
:10F5F000C053D1401FC9E1E0F0E0EC0FFD1FC05D3A
:10F60000DE4F08811981C053D140E00FF11F2083E4
:10F610000F5F1F4FC05DDE4F19830883C053D14079
:10F6200062270A171B0709F005C9D80196E002C92D
:10F63000261709F010C303C0973009F0FBC87724E0
:10F640009981933109F412C19431C8F4963009F4C8
:10F65000D8C0973050F4923009F406C1933009F4C1
:10F660006DC0913009F059C253C0913109F477C08F
:10F67000923108F0BBC0903109F04FC2F5C098310B
:10F6800009F487C0993150F4953109F4EFC09531F0
:10F6900008F4C6C1963109F040C2C2C19A3109F4DA
:10F6A0006CC09A3108F491C09B3109F45BC09D3164
:10F6B00009F033C29D81903359F48F81882311F46E
:10F6C0009EE11CC0813011F091E018C098E916C08D
:10F6D000892F807591F0903539F4E0E0F0E089E011
:10F6E0008093570094910AC0983539F4E3E0F0E034
:10F6F00089E080935700949101C090E01A821B82A8
:10F700008D818C831D829E831F8227E030E009C299
:10F710001A8288E08B8381E48C8386E58D8382E581
:10F720008E8389E48F8383E5888780E589878FE5E9
:10F730008A8782E38B872BE030E0F3C18A818139AD
:10F7400041F0823941F0803911F48FE005C080E04A
:10F7500003C082E001C08AE01A828B8344C0772410
:10F76000739482C08D81882311F48EE12CC0813086
:10F7700011F081E028C088E926C01A82E1E0F0E0BB
:10F7800089E08093570084918B831C8224E030E0D1
:10F79000C8C18B81803589F48C81883039F4E2E0EE
:10F7A000F0E089E08093570084910DC0E0E0F0E044
:10F7B00089E080935700849106C0E3E0F0E089E09F
:10F7C0008093570084911A82DFCF8D81836C99E0FA
:10F7D000E1E0F0E0082E90935700E89507B600FCB2
:10F7E000FDCF1A821B8223E030E09BC180EC8A832C
:10F7F000CE5CDE4F188219821A821B82C253D1401E
:10F800008EC18A8190E0A0E0B0E0582F44273327D2
:10F8100022278B8190E0A0E0B0E0DC0199278827C7
:10F82000282B392B4A2B5B2B8D8190E0A0E0B0E098
:10F83000282B392B4A2B5B2B8C8190E0A0E0B0E089
:10F84000BA2FA92F982F8827282B392B4A2B5B2BCF
:10F85000220F331F441F551FC05EDE4F288339839C
:10F860004A835B83C052D1401A8259C13A81C95C34
:10F87000DE4F3883C753D140CA5CDE4F1882C6536F
:10F88000D1408B81C82EDD24CA5CDE4F488159816E
:10F89000C653D140C42AD52A933109F082C0CE5C28
:10F8A000DE4F88819981AA81BB81C253D1408050AB
:10F8B000904CA340B04030F583E0CE5CDE4FE88052
:10F8C000F9800A811B81C253D140F70100935B008C
:10F8D00080935700E89507B600FCFDCFCE5CDE4F65
:10F8E000088119812A813B81C253D14000501F4FAA
:10F8F0002F4F3F4FCE5CDE4F088319832A833B8313
:10F90000C253D140C05EDE4F488159816A817B81FC
:10F91000C052D140DE011B9631E08C9111962C91A2
:10F9200011971296C75CDE4F2883C953D140C85C3B
:10F93000DE4F1882C853D14090E0C85CDE4FE881AA
:10F94000F981C853D1408E2B9F2B0C01FA01609393
:10F950005B0030935700E89511244E5F5F4F6F4F67
:10F960007F4F0EEFE02E0FEFF02ECE0CDF1CC114F8
:10F97000D10499F685E0C05EDE4F088119812A81A5
:10F980003B81C052D140F80120935B008093570027
:10F99000E89507B600FCFDCF81E180935700E8951C
:10F9A00035C0C05EDE4F88819981AA81BB81C0527B
:10F9B000D140B695A795979587957C018601ABE0D8
:10F9C000AA2EB12CAC0EBD1E0BC0D5016D915D01F0
:10F9D000C7010F947FFE0894E11CF11C01501040F8
:10F9E0000115110591F7A60160E070E0440F551F65
:10F9F000661F771FC05EDE4FE880F9800A811B8199
:10FA0000C052D1404E0D5F1D601F711F1A82C05E33
:10FA1000DE4F488359836A837B83C052D1407FC0C5
:10FA2000FA80C55CDE4FF882CB53D140C65CDE4F16
:10FA30001882CA53D1408B81C82EDD24C65CDE4FAC
:10FA400008811981CA53D140C02AD12A1A828981DA
:10FA5000BE016D5F7F4F843121F59601C05EDE4FA0
:10FA6000E880F9800A811B81C052D1400BBFF701A9
:10FA700087919691DB018C9311969C936E5F7F4FDB
:10FA8000D801C7010296A11DB11DC05EDE4F88835B
:10FA90009983AA83BB83C052D14022503040F1F6F3
:10FAA00036C0C05EDE4F288139814A815B81C052F9
:10FAB000D1400894C108D108760100E010E0089414
:10FAC000C11CD11C0894E11CF11C011D111DE20E8A
:10FAD000F31E041F151F21BDBB27A52F942F832FB5
:10FAE00082BD2F5F3F4F4F4F5F4FF89A80B5DB01CC
:10FAF0008D93BD012E153F054007510761F7C05E8C
:10FB0000DE4F288339834A835B83C052D1409601FC
:10FB10002D5F3F4FFB01108204C080EC8A8322E0FE
:10FB200030E08BE18093C6008091C00086FFFCCF5F
:10FB30008091C00080648093C000C15DDE4FF88179
:10FB4000CF52D140F093C6008091C00086FFFCCF19
:10FB50008091C00080648093C000432F3093C60022
:10FB60008091C00086FFFCCF8091C00080648093AC
:10FB7000C000922F2093C6008091C00086FFFCCF6A
:10FB80008091C00080648093C0008EE08093C600A6
:10FB90008091C00086FFFCCF8091C000806480937C
:10FBA000C00065E1C15DDE4FE880CF52D1406E25D7
:10FBB00069276427FE01319610C090819093C6009A
:10FBC0008091C00086FFFCCF31968091C000806498
:10FBD0008093C0006927215030402115310569F715
:10FBE0006093C6008091C00086FFFCCF8091C0006A
:10FBF00080648093C00085B1805885B9772081F4F6
:10FC0000C15DDE4F0881CF52D1400F5FC15DDE4F35
:10FC10000883CF52D14090E0A0E0B0E00D941AF4F8
:10FC200027982F9880E090E020ED37E0F901319798
:10FC3000F1F7019684369105C9F700008091C00064
:10FC40008D7F8093C00081E180935700E895EE2777
:10FC5000FF270994FFCF90E00D941AF497FB092E2B
:10FC600007260AD077FD04D02ED006D000201AF443
:10FC7000709561957F4F0895F6F7909581959F4F08
:10FC80000895A1E21A2EAA1BBB1BFD010DC0AA1FDD
:10FC9000BB1FEE1FFF1FA217B307E407F50720F0F5
:10FCA000A21BB30BE40BF50B661F771F881F991F70
:10FCB0001A9469F760957095809590959B01AC01B9
:10FCC000BD01CF010895AA1BBB1B51E107C0AA1FAC
:10FCD000BB1FA617B70710F0A61BB70B881F991FED
:10FCE0005A95A9F780959095BC01CD010895F99991
:10FCF000FECF92BD81BDF89A992780B50895262F31
:10FD0000F999FECF1FBA92BD81BD20BD0FB6F89400
:0EFD1000FA9AF99A0FBE01960895F894FFCF63
:040000033000E000E9
:00000001FF