:1000000001C1000011C100000FC100000DC10000BE
:100010000BC1000009C1000007C1000005C10000BC
:1000200003C1000001C10000FFC00000FDC00000CE
:10003000FBC00000F9C00000F7C00000F5C00000E0
:10004000F3C00000F1C00000EFC00000EDC00000F0
:10005000EBC00000E9C00000E7C00000E5C10000FF
:10006000E3C00000E1C00000DFC00000DDC0000010
:10007000DBC00000D9C00000D7C00000D5C0000020
:1000800053C20000D1C00000CFC0000017C2000062
:10009000CBC00000C9C00000C7C00000C5C0000040
:1000A000C3C00000C1C00000BFC00000BDC0000050
:1000B000BBC00000B9C00000B7C00000B5C0000060
:1000C000B3C00000B1C00000AFC00000ADC0000070
:1000D000ABC00000A9C00000A7C00000A5C0000080
:1000E000A3C00000000020002300260029002C00EF
:1000F0002F00320000010000030106010901000089
:100100000A0B02090C0D0E08070304010000000091
:1001100000000000000000000000000000000000DF
:10012000000000000000000000001211100000009C
:1001300000000000000000000000000000000000BF
:100140000000000000002200250028002B002E00E7
:100150003100340002010000050108010B0100001C
:100160002100240027002A002D0030003300010167
:100170000000040107010A01050505050705080837
:100180000808020202020A0A080804040404010121
:100190000101010101010303030303030303040736
:1001A00007070C0C0C0C0C0C0C0C020202020606CD
:1001B0000606060606060B0B0B0B0B0B0B0B0102C0
:1001C0001020200808102040102040800201020169
:1001D0000804020101020408102040808040201021
:1001E000080402018004020180402010080402017A
:1001F00008040201010204081020408001020408E2
:100200001020408011241FBECFEFD1E2DEBFCDBF52
:1002100000E00CBF22E0A0E0B2E001C01D92A930D6
:10022000B207E1F7A8D18FC2EBCE90E0FC01E25417
:10023000FE4F249188589E4FFC018491882399F0A9
:1002400090E0880F991FFC01E25AFE4FA591B491EE
:10025000FC01EC5BFE4F859194918FB7F894EC9183
:10026000E22BEC938FBF08958150823108F059C082
:10027000E82FF0E08827E15CFE4F8F4F5CC25F0102
:100280006301510157015B01910166016C0170012D
:1002900076017A017E018401880191018C0192012D
:1002A0009601809180008F778093800008958091DF
:1002B00080008F7DF9CF80918000877FF5CF84B556
:1002C0008F7784BD089584B58F7DFBCF8091B0007A
:1002D0008F778093B00008958091B0008F7DF9CF23
:1002E000809190008F778093900008958091900086
:1002F0008F7DF9CF80919000877FF5CF8091A0000E
:100300008F778093A00008958091A0008F7DF9CF12
:100310008091A000877FF5CF809120018F77809317
:1003200020010895809120018F7DF9CF80912001D7
:10033000877FF5CFCF93DF93282F30E0F901E2508C
:10034000FF4F8491F901E254FE4FD491F901E8582E
:10035000FE4FC491CC2399F0811186DFEC2FF0E0A1
:10036000EE0FFF1FEC51FF4FA591B491EC91ED23DF
:1003700081E090E009F480E0DF91CF91089580E082
:1003800090E0FACF1F93CF93DF93282F30E0F9014D
:10039000E250FF4F8491F901E254FE4FD491F901EC
:1003A000E858FE4FC491CC23A1F0162F81115CDFD9
:1003B000EC2FF0E0EE0FFF1FEC5BFE4FA591B49128
:1003C0008FB7F894EC91111108C0D095DE23DC931F
:1003D0008FBFDF91CF911F910895DE2BF8CF3FB7EC
:1003E000F8948091050290910602A0910702B091C5
:1003F000080226B5A89B05C02F3F19F00196A11D44
:10040000B11D3FBFBA2FA92F982F8827BC01CD015E
:10041000620F711D811D911D42E0660F771F881FBD
:10042000991F4A95D1F708951F920F920FB60F9218
:1004300011242F933F938F939F93AF93BF938091FA
:10044000010290910202A0910302B0910402309146
:10045000000223E0230F2D3758F50196A11DB11D91
:10046000209300028093010290930202A093030262
:10047000B09304028091050290910602A0910702B8
:10048000B09108020196A11DB11D809305029093C1
:100490000602A0930702B0930802BF91AF919F910B
:1004A0008F913F912F910F900FBE0F901F90189535
:1004B00026E8230F0296A11DB11DD2CF1F920F92E5
:1004C0000FB60F9211240BB60F922F933F934F93B9
:1004D0005F936F937F938F939F93AF93BF93EF93AC
:1004E000FF938DE027DF61E0892B09F060E08DE06C
:1004F00049DF8CE01FDF61E0892B09F060E08CE0D0
:1005000041DFFF91EF91BF91AF919F918F917F91CB
:100510006F915F914F913F912F910F900BBE0F9074
:100520000FBE0F901F9018951F920F920FB60F924B
:1005300011240BB60F922F933F934F935F936F93BA
:100540007F938F939F93AF93BF93EF93FF93B6DF08
:10055000FF91EF91BF91AF919F918F917F916F919B
:100560005F914F913F912F910F900BBE0F900FBE57
:100570000F901F901895789484B5826084BD84B5DF
:10058000816084BD85B5826085BD85B5816085BD8E
:1005900080916E00816080936E0010928100809146
:1005A00081008260809381008091810081608093CE
:1005B0008100809180008160809380008091B100F3
:1005C00084608093B1008091B00081608093B0001E
:1005D0008091910082608093910080919100816070
:1005E0008093910080919000816080939000809131
:1005F000A10082608093A1008091A100816080931E
:10060000A1008091A00081608093A00080912101D1
:10061000826080932101809121018160809321017A
:100620008091200181608093200180917A00846014
:1006300080937A0080917A00826080937A00809122
:100640007A00816080937A0080917A00806880933C
:100650007A001092C1008DE0E8DD8CE0E6DD1092BA
:1006600090001092910080919100806180939100A0
:1006700080919100886080939100809190008260C9
:1006800080939000809190008093900080919100E1
:10069000846080939100809191008D7F8093910080
:1006A000809191008E7F8093910084E190E09093FF
:1006B0009700809396008AE090E090939900809351
:1006C000980061E08DE05EDE60E08CE05BDE8091B2
:1006D00071008260809371008091710081608093CD
:1006E00071007894C0E0D0E07ADE4B015C018AE0D2
:1006F000C82ED12CE12CF12C72DE681979098A09F7
:100700009B09683E734081059105B0F321E0C21A50
:10071000D108E108F10888EE880E83E0981EA11C3C
:10072000B11CC114D104E104F10431F72097E1F2C6
:100730000E940000D9CFEE0FFF1F881F8BBF0790CC
:0A074000F691E02D1994F894FFCF14
:00000001FF
