:10000000E8C0000014C1000012C1000010C10000CF
:100010000EC100000CC100000AC1000008C10000B0
:1000200006C1000004C1000002C1000000C10000C0
:10003000FEC00000FCC00000FAC00000F8C00000D4
:10004000F6C00000F4C00000F2C00000F0C00000E4
:10005000EEC00000ECC00000EAC00000C5C4000013
:10006000E6C000008BC4000060C40000E0C00000D7
:10007000DEC00000DCC00000DAC00000D8C0000014
:10008000D6C00000D4C00000D2C00000D0C0000024
:10009000CEC00000CCC00000CAC00000EFC4000009
:1000A000C6C00000C4C00000C2C00000C0C0000044
:1000B000BEC00000BCC00000BAC00000B8C0000054
:1000C000B6C00000B4C00000B2C00000B0C0000064
:1000D000AEC00000ACC00000AAC00000A8C0000074
:1000E000A6C0000000002200250028002B002E00E2
:1000F0003100340002010000050108010B01050573
:100100000505070508080808020202020A0A08088D
:1001100004040404010101010101010103030303BB
:1001200003030303040707070C0C0C0C0C0C0C0C4A
:100130000202020206060606060606060B0B0B0B5B
:100140000B0B0B0B01021020200808102040102080
:10015000408002010201080402010102040810208B
:100160004080804020100804020180040201804089
:1001700020100804020108040201010204081020F2
:100180004080010204081020408000000A0B020990
:100190000C0D0E0807030401000000000000000021
:1001A000000000000000000000000000000000004F
:1001B000000000000000121110000000000000000C
:1001C000000000000000000000000000000000002F
:1001D000610611241FBECFEFD1E2DEBFCDBF00E02C
:1001E0000CBF24E0AAE8B2E001C01D92A633B2071A
:1001F000E1F712E0A0E0B2E0E8ECF0E100E00BBFD4
:1002000002C007900D92AA38B107D9F710E0C9EEE5
:10021000D0E000E005C021970109802FFE014AD7F8
:10022000C83ED10780E00807B1F796D54BC7E8CEA6
:10023000E7E4F3E0A089B18982E08C93A485B585D9
:100240001C92A685B78580E18C93108EA489B58910
:1002500086E08C93A289B3898C9180618C93A2896A
:10026000B3898C9188608C93A289B3898C918068C2
:100270008C930288F389E02D80818F7D808308959F
:10028000CF92DF92EF92FF920F931F932FB7F894C4
:10029000C0904303D0904403E0904503F0904603A0
:1002A0002FBF6C0D7D1D8E1D9F1D4FB7F8940091C3
:1002B00043031091440320914503309146034FBFFF
:1002C0000C151D052E053F0528F0601771078207E4
:1002D000930758F71F910F91FF90EF90DF90CF9009
:1002E0000895AF92BF92CF92DF92EF92FF920F9359
:1002F0001F93CF93DF936C017B018B01040F151FBC
:10030000EB015E01AE18BF08C017D10759F0699123
:10031000D601ED91FC910190F081E02DC601199577
:10032000892B79F7C501DF91CF911F910F91FF9034
:10033000EF90DF90CF90BF90AF900895089508950B
:100340000895FC01538D448D252F30E0842F90E0DB
:10035000821B930B541710F0CF96089501970895C0
:10036000FC01918D828D981761F0A28DAE0FBF2F89
:10037000B11D5D968C91928D9F5F9F73928F90E0DF
:1003800008958FEF9FEF0895FC01918D828D98174E
:1003900031F0828DE80FF11D858D90E008958FEF8B
:1003A0009FEF0895FC01918D228D892F90E0805C54
:1003B0009F4F821B91098F739927089587E493E0DB
:1003C000F1DF21E0892B09F420E0822F0895FC0160
:1003D000A48DA80FB92FB11DA35ABF4F2C91848DA6
:1003E00090E001968F739927848FA689B7892C9303
:1003F000A089B1898C91837080648C93938D848D56
:10040000981306C00288F389E02D80818F7D808358
:100410000895EF92FF920F931F93CF93DF93EC0118
:1004200081E0888F9B8D8C8D98131AC0E889F9899B
:10043000808185FF15C09FB7F894EE89FF8960839E
:10044000E889F98980818370806480839FBF81E01F
:1004500090E0DF91CF911F910F91FF90EF90089561
:10046000F62E0B8D10E00F5F1F4F0F731127E02E3C
:100470008C8D8E110BC00FB607FCFACFE889F98975
:10048000808185FFF5CFCE01A2DFF2CFEB8DEC0F9F
:10049000FD2FF11DE35AFF4FF0829FB7F8940B8FA9
:1004A000EA89FB8980818062D0CFCF93DF93EC0112
:1004B000888D8823B1F0AA89BB89E889F9898C9154
:1004C00085FD03C0808186FD0CC00FB607FCF7CF09
:1004D0008C9185FFF2CF808185FFEDCFCE0177DF54
:1004E000EACFDF91CF91089580E090E0892B21F051
:1004F00065DF81110E94000080E090E0892B49F0C7
:1005000080E090E0892B29F00E94000081110E9478
:10051000000080E090E0892B49F080E090E0892B9A
:1005200029F00E94000081110E94000080E090E00C
:10053000892B49F080E090E0892B29F00E9400008F
:1005400081110C9400000895282F30E0F901E6573E
:10055000FE4F9491F901EC5BFE4F449122503F4FC6
:10056000F9012491222309F434C0992309F191500F
:100570009231F0F4E92FF0E08827EF53FD4F8F4FD1
:1005800099C5F202F602D302EA02EE02D802F9029B
:10059000FF02030309030D03110317031B03D80212
:1005A0001F0325032903809180008F7780938000AB
:1005B000E22FF0E0EE0FFF1FEC51FF4FA591B49139
:1005C0008FB7F894EC91611148C040954E234C933D
:1005D0008FBF0895809180008F7DE8CF809180004B
:1005E000877FE4CF84B58F7784BDE2CF84B58F7DDC
:1005F000FBCF8091B0008F778093B000D9CF8091EE
:10060000B0008F7DF9CF809190008F77809390001C
:10061000CFCF809190008F7DF9CF80919000877F20
:10062000F5CF8091A0008F778093A000C1CF8091FB
:10063000A0008F7DF9CF8091A000877FF5CF8091BA
:1006400020018F7780932001B3CF809120018F7D8F
:10065000F9CF80912001877FF5CF4E2BB8CF3FB7E0
:10066000F8948091EE029091EF02A091F002B09187
:10067000F10226B5A89B05C02F3F19F00196A11DD8
:10068000B11D3FBFBA2FA92F982F8827BC01CD01DC
:10069000620F711D811D911D42E0660F771F881F3B
:1006A000991F4A95D1F708958F929F92AF92BF926A
:1006B000CF92DF92EF92FF924B015C01D0DF6B0192
:1006C0007C01CDDF6C197D098E099F09683E73405E
:1006D00081059105B0F321E0821A9108A108B108C3
:1006E00088EEC80E83E0D81EE11CF11C8114910431
:1006F000A104B10431F7FF90EF90DF90CF90BF904D
:10070000AF909F908F90089585ED8093BC0080916D
:10071000BC0084FDFCCF10921E0308952091CA02F4
:10072000260F3327331F21323105ECF420911E03AD
:10073000FC0190E080E0243069F082E00895A0910F
:10074000CA022191AC0146555D4FA40FB52FB11DD2
:100750002C930196861798F38091CA02680F6093D4
:10076000CA0280E0089581E00895E091F702809147
:10077000F602E81730F4F0E0E657FD4F808190E094
:1007800008958FEF9FEF08959091F7028091F60200
:100790002FEF3FEF981748F4E92FF0E0E657FD4FB1
:1007A000208130E09F5F9093F702C9010895809106
:1007B000F6029091F702891B990B0895CF92DF9270
:1007C000EF92FF920F931F93CF93DF937C01CB01A6
:1007D0008A0120911F03222389F0EB016B01C40ED3
:1007E000D51ECC15DD0561F06991D701ED91FC9125
:1007F0000190F081E02DC7011995F3CF642F8EDFB2
:10080000C801DF91CF911F910F91FF90EF90DF9082
:10081000CF900895CF93DF931F92CDB7DEB7698352
:1008200020911F032223F9F020914203203258F037
:1008300021E030E0FC013383228390E080E00F90E0
:10084000DF91CF91089580912003E82FF0E0EF5DD4
:10085000FC4F998190838F5F8093200380934203A4
:1008600081E090E0ECCF61E0CE01019657DFF8CF58
:1008700090E080E00895FC0101900020E9F73197B5
:10088000AF01481B590BBC0187E493E02ACD8F923E
:100890009F92AF92BF920F931F93CF93DF93CDB7E9
:1008A000DEB7A1970FB6F894DEBF0FBECDBF19A279
:1008B000423008F44AE08E010F5D1F4F842E912CC8
:1008C000B12CA12CA5019401D3D3E62FB901CA0103
:1008D000EA30ECF4E05DD801EE938D01232B242B5C
:1008E000252B81F790E080E0109711F0CD01C3DF58
:1008F000A1960FB6F894DEBF0FBECDBFDF91CF91AA
:100900001F910F91BF90AF909F908F900895E95CD9
:10091000E2CFCF93DF93AFDFEC0184E292E0ABDF75
:100920008C0F9D1FDF91CF9108951F920F920FB6EC
:100930000F9211240BB60F922F933F934F935F9317
:100940006F937F938F939F93AF93BF93EF93FF9397
:1009500087E493E03CDDFF91EF91BF91AF919F91D0
:100960008F917F916F915F914F913F912F910F9058
:100970000BBE0F900FBE0F901F9018951F920F92F5
:100980000FB60F9211240BB60F922F938F939F9354
:10099000EF93FF93E0915703F09158038081E0912A
:1009A0005D03F0915E0382FD1DC090818091600324
:1009B0008F5F8F7320916103821741F0E091600394
:1009C000F0E0E95BFC4F958F80936003FF91EF911E
:1009D0009F918F912F910F900BBE0F900FBE0F9094
:1009E0001F9018958081F2CF1F920F920FB60F9231
:1009F00011242F933F938F939F93AF93BF93809135
:100A0000430390914403A0914503B0914603309174
:100A1000ED0223E0230F2D3758F50196A11DB11DDE
:100A20002093ED028093430390934403A0934503E6
:100A3000B09346038091EE029091EF02A091F002F4
:100A4000B091F1020196A11DB11D8093EE02909329
:100A5000EF02A093F002B093F102BF91AF919F918A
:100A60008F913F912F910F900FBE0F901F9018956F
:100A700026E8230F0296A11DB11DD2CF1F920F921F
:100A80000FB60F9211240BB60F922F933F934F93F3
:100A90005F936F937F938F939F93AF93BF93EF93E6
:100AA000FF938091B900887F803609F44CC008F02C
:100AB0003FC0883209F4A8C028F5803109F49CC0F1
:100AC000C8F4882309F4FAC0883009F495C0FF916E
:100AD000EF91BF91AF919F918F917F916F915F91B6
:100AE0004F913F912F910F900BBE0F900FBE0F9023
:100AF0001F901895883109F487C0803241F78093A0
:100B00001C0314C0803409F49CC040F48033B9F352
:100B10008833E9F680931C0385ECAFC0803509F477
:100B200084C0883509F495C0883489F6EDDDCFCFCF
:100B3000883909F48CC038F5883729F050F48836A4
:100B400011F0803721F683E080931E031092EC02AF
:100B500057C0883809F47BC0803919F0803809F013
:100B6000B6CF8091EC02803208F071C0E091EC02C7
:100B700081E08E0F8093EC028091BB00F0E0E453A3
:100B8000FD4F80833DC0803B39F0E0F4803A09F4AA
:100B900079C0883A09F09BCF84E080931E031092BD
:100BA000CB021092CA02E091F402F091F50219957D
:100BB0008091CA0281110FC081E08093CA02109215
:100BC000AA0209C0803C09F4A7CF883C09F4A4CF4D
:100BD000883B09F07CCFE091CB0281E08E0F8093BF
:100BE000CB02F0E0E655FD4F80818093BB009091F1
:100BF000CB028091CA0229C08091F9028093BB0088
:100C000085EC8093BC0063CF90911B0380911A0305
:100C1000981758F5E0911B0381E08E0F80931B031A
:100C2000F0E0E650FD4F8081E9CFE0911B0381E0C9
:100C30008E0F80931B038091BB00F0E0E650FD4FC8
:100C4000808390911B0380911A039817C8F285E85E
:100C5000D8CFE0911B0381E08E0F80931B0380911E
:100C6000BB00F0E0E650FD4F808380911D038111B1
:100C70005DCF81E08093F80284EA8093BC001092FB
:100C80001E0325CF85EC8093BC0010921E0380913B
:100C9000EC02803230F4E091EC02F0E0E453FD4FDE
:100CA00010826091EC0270E0E091F202F091F302A8
:100CB0008CEC92E019951092EC0209CF10921C0373
:100CC00035CFE7E4F3E01382128288EE93E0A0E0F0
:100CD000B0E084839583A683B78324E032E0318338
:100CE000208325EC30E03587248724EC30E03787FB
:100CF000268720EC30E0318B208B21EC30E0338BE9
:100D0000228B22EC30E0358B248B26EC30E0378BC5
:100D1000268B118E128E138E148EE4EEF3E0138266
:100D2000128284839583A683B78386E192E09183C0
:100D30008083E0EFF3E01682178210861186128618
:100D400013861486158616861786108A118A128ACB
:100D5000138A148A158A0895789484B5826084BDB4
:100D600084B5816084BD85B5826085BD85B58160AF
:100D700085BD80916E00816080936E00109281002D
:100D800080918100826080938100809181008160E8
:100D900080938100809180008160809380008091A9
:100DA000B10084608093B1008091B0008160809335
:100DB000B0008091910082608093910080919100B9
:100DC0008160809391008091900081608093900079
:100DD0008091A10082608093A1008091A100816038
:100DE0008093A1008091A00081608093A0008091F9
:100DF0002101826080932101809121018160809393
:100E000021018091200181608093200180917A00EE
:100E1000846080937A0080917A00826080937A0067
:100E200080917A00816080937A0080917A00806856
:100E300080937A001092C100109232041092330411
:100E400010923404109235041092F2031092F303BE
:100E50001092F4031092F50368EB7BE080E090E0E1
:100E60000FDA68EE73E080E090E01EDCE1D92FB786
:100E7000F8948091430390914403A0914503B0916D
:100E800046032FBF8093F2039093F303A093F403E0
:100E9000B093F50387E292E0EEDC6AE070E080E078
:100EA00090E0EED9C1E0C09306042FB7F89480918A
:100EB000430390914403A0914503B09146032FBF93
:100EC0008093F2039093F303A093F403B093F5039C
:100ED00088E392E0D0DCACD984E292E0CCDC8FE312
:100EE00092E017DD1092F7021092F60210922003A2
:100EF0001092420310921E03C0931D031092F80239
:100F000061E084E121DB61E085E11EDB8091B900D5
:100F10008E7F8093B9008091B9008D7F8093B90056
:100F200088E48093B80085E48093BC008EE991E06A
:100F30009093F5028093F4028FE991E09093F3028D
:100F40008093F20288E0C82ED12CE12CF12CC0E075
:100F5000D1E012E00FEF95EEB92E25ECA22E8C2DEC
:100F6000D0931F03C09241031092200310924203BA
:100F700090911E039111FCCF10931E03D0931D037B
:100F800000931C0310921B0310921A031092F90293
:100F90009091F902880F892B8093F9028091F802D1
:100FA000813009F05CC01092F8028091F9028093C0
:100FB000BB008091BC0083FDF8CFA092BC00809163
:100FC0001E038230E1F380911C038F3F09F44AC075
:100FD00080911C03803209F447C080911C03803348
:100FE00009F444C084E0109220031092420310924E
:100FF0001F03811117C089E592E03DDC4AE0C7017B
:10100000B60145DC89E692E036DC40E1C701B60175
:101010003EDC8EE692E07DDCCF5F61E070E080E058
:1010200090E042DB8FEFC81AD80AE80AF80A88E78E
:10103000C816D104E104F10409F091CF80E792E0F1
:1010400068DC86E792E017DC6C2F70E090E080E0CF
:101050004AE01DDC8DE792E05CDC46DAFECFB09220
:10106000BC00ADCF80E0BFCF82E0BDCF83E0BBCF7F
:10107000A1E21A2EAA1BBB1BFD010DC0AA1FBB1F9C
:10108000EE1FFF1FA217B307E407F50720F0A21B0E
:10109000B30BE40BF50B661F771F881F991F1A947B
:1010A00069F760957095809590959B01AC01BD01A5
:1010B000CF010895EE0FFF1F881F8BBF0790F69199
:0810C000E02D1994F894FFCF14
:1010C8000000000009027101A1015502D201B0011E
:1010D800C401000000000A04DE033804A001D7039D
:1010E800C403B5030D0A00564D4450565F317C3198
:1010F8005F564D4450560A00564D4450525F0049C1
:101108003243207363616E6E65722E205363616E85
:101118006E696E67202E2E2E00466F756E642061F4
:101128006464726573733A200020283078002900BF
:10113800446F6E652E00466F756E642000206465EE
:0A114800766963652873292E000004
:00000001FF
