:10000000E8C0000014C1000012C1000010C10000CF
:100010000EC100000CC100000AC1000008C10000B0
:1000200006C1000004C1000002C1000000C10000C0
:10003000FEC00000FCC00000FAC00000F8C00000D4
:10004000F6C00000F4C00000F2C00000F0C00000E4
:10005000EEC00000ECC00000EAC0000078C500005F
:10006000E6C000003EC5000013C50000E0C000006F
:10007000DEC00000DCC00000DAC00000D8C0000014
:10008000D6C00000D4C00000D2C00000D0C0000024
:10009000CEC00000CCC00000CAC00000A2C5000055
:1000A000C6C00000C4C00000C2C00000C0C0000044
:1000B000BEC00000BCC00000BAC00000B8C0000054
:1000C000B6C00000B4C00000B2C00000B0C0000064
:1000D000AEC00000ACC00000AAC00000A8C0000074
:1000E000A6C0000000002200250028002B002E00E2
:1000F0003100340002010000050108010B01050573
:100100000505070508080808020202020A0A08088D
:1001100004040404010101010101010103030303BB
:1001200003030303040707070C0C0C0C0C0C0C0C4A
:100130000202020206060606060606060B0B0B0B5B
:100140000B0B0B0B01021020200808102040102080
:10015000408002010201080402010102040810208B
:100160004080804020100804020180040201804089
:1001700020100804020108040201010204081020F2
:100180004080010204081020408000000A0B020990
:100190000C0D0E0807030401000000000000000021
:1001A000000000000000000000000000000000004F
:1001B000000000000000121110000000000000000C
:1001C000000000000000000000000000000000002F
:1001D000140711241FBECFEFD1E2DEBFCDBF00E078
:1001E0000CBF24E0A8E6B2E001C01D92A032B20725
:1001F000E1F712E0A0E0B2E0E0E1F1E100E00BBFE6
:1002000002C007900D92A836B107D9F710E0C9EEE9
:10021000D0E000E005C021970109802FFE016ED7D4
:10022000C83ED10780E00807B1F758D66FC7E8CEBF
:10023000282F30E0F901E657FE4F9491F901EC5B6D
:10024000FE4F449122503F4FF9012491222309F49B
:1002500031C0992309F191509231F0F4E92FF0E087
:100260008827EB5CFE4F8F4F49C763016701470149
:100270005B015F014C016A01700174017A017E012A
:10028000820188018C014C01900196019A018091B4
:1002900080008F7780938000E22FF0E0EE0FFF1F49
:1002A000EC51FF4FA591B4918FB7F894EC914E2B80
:1002B0004C938FBF0895809180008F7DEBCF80910C
:1002C0008000877FE7CF84B58F7784BDE5CF84B585
:1002D0008F7DFBCF8091B0008F778093B000DCCF13
:1002E0008091B0008F7DF9CF809190008F778093BF
:1002F0009000D2CF809190008F7DF9CF80919000B7
:10030000877FF5CF8091A0008F778093A000C4CF26
:100310008091A0008F7DF9CF8091A000877FF5CFDD
:10032000809120018F7780932001B6CF80912001AA
:100330008F7DF9CF80912001877FF5CF08950895B3
:10034000CF92DF92EF92FF920F931F932FB7F89403
:10035000C0901603D0901703E0901803F090190393
:100360002FBF6C0D7D1D8E1D9F1D4FB7F894009102
:1003700016031091170320911803309119034FBFF2
:100380000C151D052E053F0528F060177107820723
:10039000930758F71F910F91FF90EF90DF90CF9048
:1003A0000895AF92BF92CF92DF92EF92FF920F9398
:1003B0001F93CF93DF936C017B018B01040F151FFB
:1003C000EB015E01AE18BF08C017D10759F0699163
:1003D000D601ED91FC910190F081E02DC6011995B7
:1003E000892B79F7C501DF91CF911F910F91FF9074
:1003F000EF90DF90CF90BF90AF9008950895FC01EB
:10040000538D448D252F30E0842F90E0821B930B79
:10041000541710F0CF96089501970895FC01918D1F
:10042000828D981761F0A28DAE0FBF2FB11D5D9622
:100430008C91928D9F5F9F73928F90E008958FEFC4
:100440009FEF0895FC01918D828D981731F0828D78
:10045000E80FF11D858D90E008958FEF9FEF0895CF
:10046000FC01918D228D892F90E0805C9F4F821B33
:1004700091098F739927089585E293E0F1DF21E0D8
:10048000892B09F420E0822F0895FC01A48DA80F88
:10049000B92FB11DA35ABF4F2C91848D90E00196C6
:1004A0008F739927848FA689B7892C93A089B189E6
:1004B0008C91837080648C93938D848D981306C087
:1004C0000288F389E02D80818F7D80830895EF92EB
:1004D000FF920F931F93CF93DF93EC0181E0888FFE
:1004E0009B8D8C8D98131AC0E889F989808185FFCE
:1004F00015C09FB7F894EE89FF896083E889F98970
:1005000080818370806480839FBF81E090E0DF9171
:10051000CF911F910F91FF90EF900895F62E0B8DC4
:1005200010E00F5F1F4F0F731127E02E8C8D8E117F
:100530000BC00FB607FCFACFE889F989808185FFE7
:10054000F5CFCE01A2DFF2CFEB8DEC0FFD2FF11D29
:10055000E35AFF4FF0829FB7F8940B8FEA89FB892B
:1005600080818062D0CFCF93DF93EC01888D882388
:10057000B1F0AA89BB89E889F9898C9185FD03C00E
:10058000808186FD0CC00FB607FCF7CF8C9185FFEC
:10059000F2CF808185FFEDCFCE0177DFEACFDF910B
:1005A000CF91089580E090E0892B21F065DF8111E3
:1005B0000E94000080E090E0892B49F080E090E00C
:1005C000892B29F00E94000081110E94000080E028
:1005D00090E0892B49F080E090E0892B29F00E947F
:1005E000000081110E94000080E090E0892B49F01A
:1005F00080E090E0892B29F00E94000081110C948A
:10060000000008953FB7F89480911203909113036E
:10061000A0911403B091150326B5A89B05C02F3FE8
:1006200019F00196A11DB11D3FBFBA2FA92F982F18
:100630008827BC01CD01620F711D811D911D42E013
:10064000660F771F881F991F4A95D1F708958F92DB
:100650009F92AF92BF92CF92DF92EF92FF924B01A7
:100660005C01D0DF6B017C01CDDF6C197D098E0947
:100670009F09683E734081059105B0F321E0821A1D
:100680009108A108B10888EEC80E83E0D81EE11CCD
:10069000F11C81149104A104B10431F7FF90EF9093
:1006A000DF90CF90BF90AF909F908F900895089566
:1006B00085ED8093BC008091BC0084FDFCCF10923E
:1006C000200308952091A802260F3327331F2132DB
:1006D0003105ECF420912003FC0190E080E024300F
:1006E00069F082E00895A091A8022191AC014857D9
:1006F0005D4FA40FB52FB11D2C930196861798F36B
:100700008091A802680F6093A80280E0089581E0BC
:100710000895E091240380912303E81730F4F0E07A
:10072000E859FD4F808190E008958FEF9FEF089585
:1007300090912403809123032FEF3FEF981748F403
:10074000E92FF0E0E859FD4F208130E09F5F909362
:100750002403C90108958091230390912403891BE8
:10076000990B0895CF92DF92EF92FF920F931F9310
:10077000CF93DF937C01CB018A012091EF022223EA
:1007800089F0EB016B01C40ED51ECC15DD0561F0BF
:100790006991D701ED91FC910190F081E02DC701A5
:1007A0001995F3CF642F8EDFC801DF91CF911F9190
:1007B0000F91FF90EF90DF90CF900895CF93DF934C
:1007C0001F92CDB7DEB769832091EF022223F9F0A3
:1007D00020912103203258F021E030E0FC013383E6
:1007E000228390E080E00F90DF91CF910895809177
:1007F0002203E82FF0E0E051FD4F998190838F5F55
:10080000809322038093210381E090E0ECCF61E0AC
:10081000CE01019657DFF8CFCF93FC01C48121E0D0
:100820002093EF02C0931003109222031092210331
:100830008385682B82EC93E0C1DF90912103913294
:1008400008F03FC0809120038111FCCF82E08093AB
:10085000200381E080931F038FEF8093EE021092BC
:10086000ED029093EC02A0EFB2E0ECECF2E080E05D
:1008700098132FC01092CB028091CB02CC0FC82BC3
:10088000C093CB0280911E03813039F510921E0374
:100890008091CB028093BB008091BC0083FDF8CF98
:1008A00085EC8093BC00809120038230E1F380913D
:1008B000EE028F3F31F08091EE02803211F0809194
:1008C000EE0210922203109221031092EF02CF91B8
:1008D00008952D9121938F5FCBCF85EEE2CF90E0ED
:1008E00080E00895FB0101900020E9F73197AF0106
:1008F000461B570BDC01ED91FC910280F381E02D4A
:1009000019940F931F93CF938C01C62F85DF6C2F03
:100910006460C80181DF6C2F6B7FC8017DDF83ECD1
:1009200090E00197F1F7CF911F910F9108950F93E8
:100930001F93CF93DF938C01D62FC42F607F642B3E
:10094000E0DF80E1D89FB00111246C2BC801DF915A
:10095000CF911F910F91D5CF682F606840E084E15F
:1009600094E0E5CFCF93DF931092240310922303FA
:1009700010922203109221031092200381E08093B1
:100980001F0310921E0384E153DC85E151DC80914A
:10099000B9008E7F8093B9008091B9008D7F8093DC
:1009A000B90088E48093B80085E48093BC008EE9A8
:1009B00091E090931D0380931C038FE991E0909345
:1009C0001B0380931A031092190480911E04823035
:1009D00018F098E09093190480931C0462E370E08F
:1009E00080E090E034DE60911F0484E194E014DF45
:1009F00068EE73E080E090E02ADE60E384E194E05A
:100A000080DFCBE4D6E4CE010197F1F760E384E127
:100A100094E077DF2197F1F760E384E194E071DF00
:100A200083E592E00197F1F760E284E194E069DF09
:100A300060911904606240E084E194E078DF84E032
:100A400080931A0440E06CE084E194E070DF40E0C1
:100A500061E084E194E06BDFCBE3DFE1CE0101975D
:100A6000F1F782E080931B0440E066E084E194E0CB
:100A70005EDF40E062E084E194E059DF2197F1F726
:100A8000DF91CF91089541E052DF81E090E0089539
:100A90001F920F920FB60F9211240BB60F922F9345
:100AA0003F934F935F936F937F938F939F93AF93F6
:100AB000BF93EF93FF9385E293E0E7DCFF91EF9123
:100AC000BF91AF919F918F917F916F915F914F9166
:100AD0003F912F910F900BBE0F900FBE0F901F9064
:100AE00018951F920F920FB60F9211240BB60F920A
:100AF0002F938F939F93EF93FF93E0913503F091A2
:100B000036038081E0913B03F0913C0382FD1DC0E0
:100B1000908180913E038F5F8F7320913F038217F6
:100B200041F0E0913E03F0E0EB5DFC4F958F809348
:100B30003E03FF91EF919F918F912F910F900BBEEC
:100B40000F900FBE0F901F9018958081F2CF1F92CB
:100B50000F920FB60F9211242F933F938F939F9371
:100B6000AF93BF938091160390911703A091180340
:100B7000B09119033091110323E0230F2D3758F55D
:100B80000196A11DB11D209311038093160390932C
:100B90001703A0931803B093190380911203909147
:100BA0001303A0911403B09115030196A11DB11D6B
:100BB0008093120390931303A0931403B09315032F
:100BC000BF91AF919F918F913F912F910F900FBE49
:100BD0000F901F90189526E8230F0296A11DB11DB6
:100BE000D2CF1F920F920FB60F9211240BB60F9215
:100BF0002F933F934F935F936F937F938F939F9325
:100C0000AF93BF93EF93FF938091B900887F8036B5
:100C100009F44CC008F03FC0883209F4A8C028F598
:100C2000803109F49CC0C8F4882309F4FAC08830E4
:100C300009F495C0FF91EF91BF91AF919F918F9172
:100C40007F916F915F914F913F912F910F900BBECC
:100C50000F900FBE0F901F901895883109F487C030
:100C6000803241F78093EE0214C0803409F49CC0B6
:100C700040F48033B9F38833E9F68093EE0285ECD3
:100C8000AFC0803509F484C0883509F495C0883434
:100C900089F60EDDCFCF883909F48CC038F5883756
:100CA00029F050F4883611F0803721F683E08093E4
:100CB00020031092CA0257C0883809F47BC08039DB
:100CC00019F0803809F0B6CF8091CA02803208F05E
:100CD00071C0E091CA0281E08E0F8093CA028091B8
:100CE000BB00F0E0E655FD4F80833DC0803B39F00E
:100CF000E0F4803A09F479C0883A09F09BCF84E0A7
:100D0000809320031092A9021092A802E0911C0384
:100D1000F0911D0319958091A80281110FC081E007
:100D20008093A8021092880209C0803C09F4A7CFE2
:100D3000883C09F4A4CF883B09F07CCFE091A9025C
:100D400081E08E0F8093A902F0E0E857FD4F80818B
:100D50008093BB009091A9028091A80229C0809144
:100D6000CB028093BB0085EC8093BC0063CF909155
:100D7000ED028091EC02981758F5E091ED0281E0C8
:100D80008E0F8093ED02F0E0E453FD4F8081E9CFB8
:100D9000E091ED0281E08E0F8093ED028091BB0027
:100DA000F0E0E453FD4F80839091ED028091EC02DE
:100DB0009817C8F285E8D8CFE091ED0281E08E0F58
:100DC0008093ED028091BB00F0E0E453FD4F8083FF
:100DD00080911F0381115DCF81E080931E0384EA1F
:100DE0008093BC001092200325CF85EC8093BC003B
:100DF000109220038091CA02803230F4E091CA023E
:100E0000F0E0E655FD4F10826091CA0270E0E0917B
:100E10001A03F0911B038AEA92E019951092CA0214
:100E200009CF1092EE0235CFE5E2F3E01382128291
:100E300088EE93E0A0E0B0E084839583A683B78337
:100E400024E032E03183208325EC30E035872487AD
:100E500024EC30E03787268720EC30E0318B208B84
:100E600021EC30E0338B228B22EC30E0358B248B6D
:100E700026EC30E0378B268B118E128E138E148E5B
:100E8000E2ECF3E01382128284839583A683B78316
:100E900086E192E091838083EEECF3E01682178284
:100EA0001086118612861386148615861686178676
:100EB000108A118A128A138A148A158AE4E1F4E0EE
:100EC0001382128288E292E09183808387E2848396
:100ED00080E1818782E0828713860895789484B5C3
:100EE000826084BD84B5816084BD85B5826085BD26
:100EF00085B5816085BD80916E00816080936E00B4
:100F000010928100809181008260809381008091A5
:100F10008100816080938100809180008160809356
:100F200080008091B10084608093B1008091B00016
:100F300081608093B00080919100826080939100E5
:100F400080919100816080939100809190008160F8
:100F5000809390008091A10082608093A100809195
:100F6000A10081608093A1008091A00081608093A6
:100F7000A000809121018260809321018091210154
:100F80008160809321018091200181608093200104
:100F900080917A00846080937A0080917A008260E8
:100FA00080937A0080917A00816080937A008091AA
:100FB0007A00806880937A001092C1001092100429
:100FC0001092110410921204109213041092D00384
:100FD0001092D1031092D2031092D30368EB7BE0FE
:100FE00080E090E0ADD968EE73E080E090E02FDB28
:100FF000E0913503F091360382E08083E091310384
:10100000F09132031082E0913303F091340380E1D8
:10101000808310923D03E0913903F0913A0386E01A
:101020008083E0913703F091380380818061808371
:10103000E0913703F0913803808188608083E091EC
:101040003703F0913803808180688083E091370313
:10105000F091380380818F7D80832FB7F894809141
:10106000160390911703A0911803B09119032FBF95
:101070008093D0039093D103A093D203B093D30372
:1010800060E372E085E293E02DDC6AE070E080E0EE
:1010900090E056D981E08093E4032FB7F8948091D3
:1010A000160390911703A0911803B09119032FBF55
:1010B0008093D0039093D103A093D203B093D30332
:1010C00061E472E085E293E00DDC4CDC4BDC88E00F
:1010D00080931F0460E084E194E09EDB80E03CDCD0
:1010E00068E472E084E194E0FDDB81E035DC66E5F4
:1010F00072E084E194E0F6DB55DAFECFEE0FFF1FDD
:10110000881F8BBF0790F691E02D1994F894FFCFBC
:10111000000000006702D101FF01B30230020E029D
:10112000220200000000DE03B2036F04FE01AB03E5
:1011300098038903000000004305D1016F045703A1
:10114000564D4450565F317C315F564D4450560ADF
:1011500000564D4450525F0048656C6C6F2C2077F0
:101160006F726C6421005977726F626F74204172E4
:081170006475696E6F21000037
:00000001FF
